:100000000C9469050C94B0050C94B0050C94B005E3
:100010000C94B0050C94B0050C94B0050C94B0058C
:100020000C94B0050C94B0050C94EE2A0C94C02BE3
:100030000C9458200C94B0050C94B0050C94B005A9
:100040000C94B0050C94B0050C94B0050C94B0055C
:100050000C94B0050C94C0200C94B0050C94B00521
:100060000C94B0050C94B0050C94B0050C94B0053C
:100070000C94B0050C94B0050C94B0050C94B0052C
:100080000C94B0050C94B0050C94B0050C94B0051C
:100090000C94B0050C94B0050C94B0050C94B0050C
:1000A0000C94B0050C94B0050C94B00524152415DF
:1000B000561556159C15BA1511171117FC159116E2
:1000C000A216A2160117111711170A17B417B417A1
:1000D000C617C617BD17C617C617C617B417B41765
:1000E000C217C617C617C2172D2C542C4C2D542CD2
:1000F0004C2DA02CC32C4C2D1A2D292D0A00253057
:10010000313662003A200025303258000A722F63DF
:100110002030313233343536373839414243444563
:10012000460A006D63703233303137206465617484
:100130007461636865642121210A006D6370323344
:100140003031372061747461636865642121210A4C
:1001500000170127001E001F002000210029003584
:1001600000220023002400250026000100B900140D
:10017000001A00080015001700060116011C0018DF
:10018000000C00120013002B01E000040016000711
:100190000009000A00000000000B000D000E000F17
:1001A000003300E400E2001D001B000600190005FA
:1001B0000019012B0411001000360037003800E64A
:1001C00000E300B600B7004E004B00000000000046
:1001D0000000002E002D002F003000340000002C05
:1001E000002A004D414A4250004F00520051000089
:1001F000430454E10028000000000000000000005B
:100200000000000000075300000000000000000094
:100210000000000000000000000000A90000000035
:10022000000000000028005F006000610056000030
:100230000000000000AC00AE00AB000000000000B9
:100240000062005C005D005E0057000000000000DE
:10025000000000AA0000000000000000000000599B
:10026000005A005B0058000000000000000000A8D9
:10027000000000000000000000000000000000007E
:10028000000000000000000000000001000100006C
:1002900000000000000901010001001D011C010017
:1002A0000000003A003B003C003D003E003F0040A3
:1002B00000410042004300440045000000000000EF
:1002C00000000000000000000000000000240222E6
:1002D000021F0220022102000000000000000000B6
:1002E000000000000000000000310226022F022F53
:1002F00000360200000000000000000000000000C6
:1003000000000000003802270230023000370200EF
:1003100000000000000000000000000000000000DD
:100320000000001E0231000000000000000000007C
:1003300000000001000100000000000000000001BA
:1003400000010000000000000000000000000000AC
:10035000000000000000000000000000000000009D
:10036000000000000000000000000000000000008D
:100370000006530000000000000000000000000024
:10038000000000000000000000000000000000006D
:10039000000000000000000000000000000000005D
:1003A00000000000000000000005530000000000F5
:1003B000000000000000000000000000000000003D
:1003C000000000000000000000000000000000002D
:1003D000000000000000002B004C000100010000A4
:1003E000000000000000000100010000000000000B
:1003F00000000000000000000000000000005C00A1
:1004000000000000000000000000000000000000EC
:1004100000000000000000000000000000000000DC
:1004200000000000000000000000000000000000CC
:1004300000000000000000000000000000000000BC
:1004400000000000000000000000000000000000AC
:1004500000015C000000000000000000000000003F
:10046000000000000000000000000000000000008C
:10047000000000000000000000000000000000007C
:1004800000A60000000000000000000000000000C6
:10049000000100000000000000000000001E001F1E
:1004A00000200021002900000000000000000000E2
:1004B000000000005C000015000C001A000800227B
:1004C000000000000000000000000000000000002C
:1004D00000000018000400160007000A00000000D9
:1004E000000000000000000000000000000000000C
:1004F00000000000000000000000000000000000FC
:1005000000000000000000000000000000000000EB
:1005100000E00000000000000000000000000000FB
:10052000000000000000002C00E1002A002B000069
:10053000000000000000000000105000000000005B
:1005400000000000000000000000000000000000AB
:10055000000000000000000000000000000000009B
:100560000014001A00080000000000000000000055
:100570000000000000000000000000000004001661
:100580000007000000000000000000000000000064
:100590000000000000000009000000000000000052
:1005A000000000000000000000000000000000004B
:1005B0000000001500000000000600000000000020
:1005C0000000000000000000000000000000002CFF
:1005D00000E1000A00210000002B000000000000E4
:1005E00000105000000000000029001E001F002025
:1005F000002100220035003400230024002500E102
:1006000000E1001050260033003600370013001CB4
:10061000002D002D0009000A00060015000F00271C
:10062000002F0004001200080018000C0000000059
:100630000007000B001700110016003000E1003326
:100640000014000D000E001B002E002E00050010EF
:10065000001A0019001D00E100E300E200E0002A9A
:10066000002A0000000000000000004C0050004F75
:10067000005200510000002C00E10031002B00E18D
:1006800000E100E100E1002B003800E1002800005B
:10069000000000000000000000000000000000005A
:1006A0000000000000000000000000010000000049
:1006B000000000000000000000000000000000003A
:1006C000000000000000000000000000000000002A
:1006D000000000000000000000000000000000001A
:1006E000000000000000000000000000000000000A
:1006F00000000000000000000000000000000000FA
:1007000000000000000000000000000000000000E9
:1007100000000000000000000000000000000000D9
:1007200000000000000000000000000000000000C9
:1007300000000000000000000044454255473A20F8
:1007400064697361626C65642E0A004445425547D2
:100750003A20656E61626C65642E0A006261636BAB
:100760006C6967687420737465703A2025750A0097
:100770006261636B6C696768742064697361626C41
:10078000650A006261636B6C6967687420656E61FD
:10079000626C650A006261636B6C696768742074DF
:1007A0006F67676C653A2025750A006261636B6C40
:1007B000696768742064656372656173653A2025B2
:1007C000750A006261636B6C6967687420696E63A7
:1007D00072656173653A2025750A00556E69636F0D
:1007E000646520696E707574206D6F646520736533
:1007F0007420746F3A2025750A00556E69636F6422
:100800006520696E707574206D6F646520696E690E
:100810007420746F3A2025750A000A00253032587A
:1008200020006B6579626F6172645F7265706F72D0
:10083000743A20000A0025303258006B6579626FE7
:100840006172645F7365745F6C65643A200064650F
:100850006C5F6B65795F6269743A2063616E2774BF
:100860002064656C3A20253032580A006164645F68
:100870006B65795F6269743A2063616E27742061E9
:1008800064643A20253032580A00646F6E652E0A7F
:1008900000626F6F746D61676963207363616E3AA4
:1008A000202E2E2E2000290A002575002F002575E8
:1008B000005D2800256400200025640020002564D8
:1008C0000020002564007C0025303258006D6F75D3
:1008D00073656B6579205B62746E7C782079207615
:1008E00020685D287265702F61636C293A205B0077
:1008F0005B735D004B6579626F6172642073746134
:1009000072742E0A005B575D005B535D005B525DA5
:10091000005B445D005B435D000403300000000E9B
:100920000348006F00740044006F0078000000125C
:10093000035A002E0050002E005A002E004F002EA9
:100940000000000403090409025B00030100A0FA8F
:100950000904000001030101000921110100012225
:1009600040000705810308000A0904010001030093
:10097000000009211101000122BC000705820320AB
:10098000000A09040200020300000009211101000D
:10099000012222000705830320000107050303202D
:1009A00000011201100100000008EDFE1DE1010030
:1009B000010203010631FF0974A101097515002622
:1009C000FF009520750881020976150026FF009525
:1009D0002075089102C005010902A10185020901E3
:1009E000A1000509190129051500250195057501C5
:1009F00081029501750381010501093009311581D5
:100A0000257F95027508810609381581257F950196
:100A100075088106050C0A38021581257F95017538
:100A2000088106C0C005010980A101850319012ABA
:100A3000B700150126B700950175108100C0050C9F
:100A40000901A101850419012AA002150126A002AD
:100A5000950175108100C005010906A101850505F4
:100A60000719E029E71500250195087501810205A0
:100A700007190029EF1500250195F0750181020580
:100A800008190129059505750191029501750391D4
:100A900001C005010906A101050719E029E71500B4
:100AA00025019508750181029501750881010507E9
:100AB000190029FF150026FF00950675088100051D
:100AC0000819012905950575019102950175039194
:100AD00001C011241FBECFEFDAE0DEBFCDBF04B6E8
:100AE00003FE27C08091EE029091EF02A091F002E8
:100AF000B091F1028730904BA740B04BD1F41092E7
:100B0000EE021092EF021092F0021092F10214BE67
:100B100084B7877F84BF0FB6F894A8958091600052
:100B2000886180936000109260000FBEE0E0F8E3FF
:100B3000099511E0A0E0B1E0E2E9FCE502C0059012
:100B40000D92A438B107D9F722E0A4E8B1E001C0C2
:100B50001D92AE3EB207E1F70E9414280C94472E76
:100B60000C940000FF93EF93E0918401F0918501D4
:100B7000309709F00995EF91FF910895FC01859157
:100B8000803011F0EFDFFBCF0895FF27E0E230E285
:100B900047FF0CC0419597FF09C0EDE26095709545
:100BA00080959095611D711D811D911D27FF02C0CB
:100BB000219530E350E2AA27660F771F881F991FFF
:100BC000AA1FA41710F0A41B63955A95A9F7AA3081
:100BD00008F0A95FA05DAF93F395611571058105DC
:100BE000910541F7ED3211F4EF93F395F21718F4F4
:100BF0003F93F395FBCF8F91B5DFFA95E1F7089519
:100C0000E991F9918591803021F0853219F0AADFC0
:100C1000F9CF089520E0E89455915532C1F350334F
:100C200011F4689455915A3348F4505390F3220FBD
:100C3000022E220F220F200D250FF4CF0EF4219546
:100C400089919991533619F3533729F1533559F155
:100C5000BC0188279927E8945C3621F48991999101
:100C600068945591543639F446EF7EF077FF0DC005
:100C70008FEF9FEF0AC055374AE039F0583540E111
:100C800021F0523642E009F00895FF93EF937DDFA3
:100C9000EF91FF91B7CFFF93EF93FC0181918030EB
:100CA000B9F360DFFBCFFF93EF9368DFF1CFDF9302
:100CB000CF93CDB7DEB72596A3DFCF91DF9108950F
:100CC00080B38C7080BB81B38C7081BB0C94C308E3
:100CD00084B1807F84B985B18F6085B98AB1837F03
:100CE0008AB98BB18C608BB93E98469A0C940909ED
:100CF00008950C9478060C9478060E9460060E9471
:100D00006806EAEDF1E086E891E011921192DC01CB
:100D10002EE01D922150E9F70E9621E08A3D9207C0
:100D2000A1F70C945E0A0E9460060E946806EAED34
:100D3000F1E01182108213821282158214821782CE
:100D40001682118610861386128608952EE0829FE1
:100D5000C0011124FC01EA57FE4F20E030E040E0E2
:100D600050E061E070E09081992319F091509083F8
:100D700009C0CB01022E02C0880F991F0A94E2F726
:100D8000482B592B2F5F3F4F31962E30310559F7A5
:100D9000CA010895CF932EE0629FB001112420E094
:100DA00030E0A1E0B0E0C5E0AD01022E02C0440F8A
:100DB000551F0A94E2F748235923452B31F0FB01D4
:100DC000E20FF31FEA57FE4FC0832F5F3F4F2E30D5
:100DD000310551F7CF910895CF92DF92EF92FF92B4
:100DE0000F931F93CF930E94E5088AEDE82E81E0D0
:100DF000F82EC0E0C33091F038F4C13091F0C23029
:100E000099F4859A8D9812C0C43029F0C53061F4E8
:100E1000809A88980BC0819A899808C0849A8C9887
:100E200005C0869A8E9802C0879A8F988C2F0E9450
:100E3000C70880EA8A95F1F78C2F0E94A6066C01FC
:100E40000E943F09282F30E0369903C000E810E0E7
:100E500002C000E010E04B9903C080E091E002C0C6
:100E600080E090E0082B192B4A9903C080E092E0C3
:100E700002C080E090E0082B192B1B9903C040E0D2
:100E800054E002C040E050E0042B152B1A9903C037
:100E900060E078E002C060E070E0062B172B199943
:100EA00003C080E090E102C080E090E0082B192BA5
:100EB000189903C040E050E202C040E050E0F70162
:100EC00080819181042B152B022B132B08271927C6
:100ED0000C211D21082719276C2F802791270E949C
:100EE000CA06F701019311937F010E946006CF5F4C
:100EF000C63009F07FCF0E946A0A81E0CF911F912E
:100F00000F91FF90EF90DF90CF900895E82FF0E0E1
:100F1000EE0FFF1FE652FE4F808191810895CF9220
:100F2000DF92EF92FF920F931F93CF93DF938CE0AA
:100F300091E00E94BE058AEDE82E81E0F82EC0E027
:100F4000D0E097E0C92E91E0D92E0EEF10E0DF93AC
:100F5000CF93DF92CF920E94570684E091E00E94E7
:100F6000BE05F701819191917F010E94501E9F93D0
:100F70008F931F930F930E9457068CEF90E00E946F
:100F8000BE0521968DB79EB708960FB6F8949EBF02
:100F90000FBE8DBFC630D105D1F6DF91CF911F9125
:100FA0000F91FF90EF90DF90CF9008951092B900CD
:100FB0008CE08093B8000895EF92FF920F931F93F7
:100FC000CF93DF93182FEB011092BC0084EA80933B
:100FD000BC000E948A207C018091BC0087FD0EC06D
:100FE000CF3F8FEFD807C1F30E948A208E199F0947
:100FF0008C179D0788F38EEF9FEF2EC08091B9006C
:10100000887F883041F08091B900887F803119F065
:101010008FEF9FEF21C01093BB0084E88093BC004A
:101020000E948A208C018091BC0087FD0CC0CF3FBC
:101030008FEFD807C1F30E948A20801B910B8C1779
:101040009D0788F3D8CF8091B900887F883111F04F
:101050008034F1F680E090E0DF91CF911F910F9105
:10106000FF90EF9008950F931F93CF93DF93EB01C1
:101070008093BB0084E88093BC000E948A208C018E
:101080008091BC0087FD0EC0CF3F8FEFD807C1F322
:101090000E948A20801B910B8C179D0788F38EEF8E
:1010A0009FEF0CC02091B900287F81E090E02832AA
:1010B00011F480E090E0919581959109DF91CF91B5
:1010C0001F910F9108950F931F93CF93DF93EC011E
:1010D00084E88093BC000E948A208C018091BC002F
:1010E00087FD0EC0CF3F8FEFD807C1F30E948A2043
:1010F000801B910B8C179D0788F38EEF9FEF03C029
:101100008091BB0090E0DF91CF911F910F910895E6
:1011100084E98093BC0008951092E6010E94D607EE
:101120002FEF83ED90E3215080409040E1F700C025
:10113000000080E008951F93CF93DF939091E60124
:101140009923E1F0D62F182F64E670E080E40E9426
:10115000DC07C82F81110EC064E670E0812F0E9469
:101160003308C82F811106C064E670E08D2F0E94FD
:101170003308C82F0E9488088C2F01C080E0DF91BF
:10118000CF911F9108956FE381E00C949B0861E07B
:1011900070E001C0660F8A95EAF7609581E00C94D3
:1011A0009B086FE780E00E949B086FE782E00E9447
:1011B0009B086FE78CE00E949B086FEF81E00E9424
:1011C0009B0860EC83E10C949B0864E670E080E48B
:1011D0000E94DC07811110C00E9488088091E601FE
:1011E000811116C081E08093E6010E94D1080E941F
:1011F000A2178BE391E00AC08091E601882341F0B9
:101200001092E6010E94A21783E291E00C94BE05C1
:1012100008950E948C080C94E5080F931F93CF93B8
:10122000DF939091E601992321F18B01D82F64E699
:1012300070E080E40E94DC07C82F811116C064E6CC
:1012400070E08D2F0E943308C82F81110EC064E614
:1012500070E081E40E94DC07C82F811106C084E69B
:1012600090E00E946308F80180830E9488088C2F18
:1012700001C080E0DF91CF911F910F910895CF932E
:10128000DF931F92CDB7DEB71982BE016F5F7F4F2C
:1012900082E10E940D0989810F90DF91CF9108951D
:1012A000279A2F98259A2D9A269A2E9A249A2C9A24
:1012B000259A2D982FEF80E792E0215080409040B2
:1012C000E1F700C00000269A2E982FEF80E792E009
:1012D000215080409040E1F700C00000249A2C98F3
:1012E0002FEF80E792E0215080409040E1F700C06E
:1012F0000000259A2D9A2FEF80E792E02150804040
:101300009040E1F700C00000269A2E9A2FEF80E768
:1013100092E0215080409040E1F700C00000249A04
:101320002C9A279A2F9A259A2D98269A2E98249AA5
:101330002C982FE782E490E1215080409040E1F723
:1013400000C00000279A2F98259A2D9A269A2E9A47
:10135000249A2C9A08950E9450090C9479069C01B5
:101360003A9521153F4138F5DC01AA27B270AC014E
:10137000442754709C012227387094FF0FC090FFBF
:1013800002C080E101C080E0AB2B09F08062452BF8
:1013900009F08064232B69F080680BC0892F81706D
:1013A000AB2B09F08260452B09F08460232B09F0F8
:1013B0008860FB0109940895CF93DF93EC01805E70
:1013C0009109089710F0209719F464EE74E102C0B7
:1013D0006AE777E1CE010E94AF098C2FDF91CF91B0
:1013E0000C94BF13CF93DF93EC010E946914CE01DC
:1013F000805E9109089710F0209719F46BEE74E164
:1014000002C061E877E1CE01DF91CF910C94AF0982
:10141000CF93DF93EC010E94DC09CE01DF91CF91E5
:101420000C94F20981E0089581E008950C94140A67
:1014300008950C94180A1F93CF93DF9300D000D027
:101440001F92CDB7DEB749835A836B832091FE018B
:1014500089819A81211112C0662349F00E94041DDE
:10146000182F682F89819A810E94AD1C03C00E94A9
:10147000D81C182F69817A81812F04C00E94041D15
:1014800069817A810F900F900F900F900F90DF91EC
:10149000CF911F910C94030BFC014081518162811B
:1014A000738184810C941B0ACF93DF93EC010E941B
:1014B0004C0ABE01DF91CF910C94190A0E94631E61
:1014C000811102C00E94161F0E94EA0E0E940F0F97
:1014D0000C94AB090C947B06282F2F7041F0822FBF
:1014E00090E02A3010F44D9608950697089587E20B
:1014F00090E0089508950C947A0A81E008950C9480
:101500007D0ACF93C82F0E947B0A8C2F0E947F0AEE
:10151000CF91089508950E94A2170E948A0A2FEF82
:1015200084E39CE0215080409040E1F700C000003F
:101530000C94E6200F931F93CF93DF93EC010E944E
:101540004C0A8C01BE010E94160A882309F450C07F
:10155000BE01C8010E94530E882309F449C0BE0190
:10156000C8010E94AC0F882309F442C0BE01C80123
:101570000E9452108823E1F1BE01C8010E9493101D
:101580008823B1F1BE01C8010E94BE11882381F1F8
:101590008A81882331F101308CE5180751F00E3D26
:1015A0008CE51807D9F001151C45D9F40E948B0A67
:1015B0001FC080919B02C82FC095C170C0FB80F9ED
:1015C00080939B02CC2329F08BE497E00E94BE0518
:1015D0000FC089E397E00E94BE050BC00E94161F52
:1015E00007C0CE01DF91CF911F910F910C94120A89
:1015F000C0E08C2FDF91CF911F910F91089580E073
:1016000090E00895089524E5829FC0011124FC0113
:101610002EE0729FE00DF11D1124E60FF11DEE0F7B
:10162000FF1FEF5AFE4F859194910895880F991FDF
:10163000FC01E45AF84F859194910895CF93DF937C
:101640000E94030B0E94360CEC018115904508F0B6
:1016500041C0C11580E4D80708F0D1C0C83ED1050B
:1016600010F5C03ED10508F0FDC0C83AD10578F4A8
:10167000C53AD10508F0A2C0C130D10509F4F2C0C5
:1016800008F4EEC0C430D10508F0ECC0E9C0CF3B8F
:10169000D10508F49BC0C03CD10508F4E1C0CE01DF
:1016A000805C91099EC0C11590E2D90758F4C1151C
:1016B00021E0D20708F0D6C0C03FD10508F4D0C061
:1016C000D065D0C0C11580E3D80708F08EC0CE0128
:1016D0009F7087C0C11595E5D90708F043C0C115B3
:1016E00024E5D20708F0A2C0C11582E5D80708F5A5
:1016F000C11591E5D90708F085C0CE0174E0969533
:1017000087957A95E1F783709C2F937021E030E004
:1017100002C0220F331F9A95E2F73C68382BCF7036
:10172000C695C69580E2C89FE0011124C22BD32B39
:1017300099C09E01237033278C2F86958695C115FD
:10174000D34508F064C0C1E0D0E002C0CC0FDD1F7B
:101750002A95E2F720E2829FC0011124C82BD92BE1
:10176000DC6880C0C11529E5D207A0F4C11588E561
:10177000D80708F060C0C11596E5D90708F070C019
:101780008C2F0E94CA0C8F71C82FD0E0DC2FCC2781
:10179000D06268C0C1152AE5D20708F451C0CE0155
:1017A00090568115904208F05BC08D2F8F710E947A
:1017B000CA0CDD27D0628F71D82B54C0C55AD0E037
:1017C000CF5BDE4FC881D0E0D0644CC0C85AD0E0B7
:1017D000CC0FDD1FCD5EDE4F0990D881C02DD464C3
:1017E00041C00E94160BEC013DC0CE019927D3FFEA
:1017F00003C0EC01D86C36C0EC01D06C33C0DF7094
:10180000D06A30C0DC2FCC27C16FD06A2BC0C1E0BA
:10181000D0E002C0CC0FDD1F2A95E2F720E2829FC4
:10182000C0011124C82BD92BDA681CC0DC2FCC27AF
:10183000C46FD06A17C0DC2FCC27C06FD06A12C02B
:101840008C2F8F700E94CA0C94E0D695C7959A95FC
:10185000E1F7CF70D0E0DC2FCC27D069C82B02C0D5
:10186000C0E0D0E0CE01DF91CF910895823891059C
:1018700069F1B0F48133910509F46DC048F48932FF
:10188000910509F463C08A32910509F469C008958D
:101890008533910509F455C089339105B9F0089550
:1018A000833E910569F138F4803E9105B1F0823EA6
:1018B000910509F10895863E9105A9F1873E9105AC
:1018C000B9F1843E910509F064C023C02091DF0284
:1018D00020FD4FC021FD4DC008958091DF0280FDA5
:1018E00044C08091E00280FF44C08091DF0284FD0B
:1018F00042C083EE4DC08091DF0282FF38C0F5CF39
:101900008091DF0282FD33C08091E00280FD31C012
:10191000ECCF8091E00281FF32C08091DF0284FD34
:101920002AC087EE35C08091DF0283FF26C0F5CF45
:101930008091DF0283FD21C08091E00281FD1FC004
:10194000ECCF8091DF0285FD1CC01DC08091DF02BD
:1019500085FD19C016C08091DF0286FD16C017C034
:101960008091DF0286FD13C010C089E311C082EEB2
:101970000FC080EE0DC080E00BC086EE09C084EE83
:1019800007C089E205C085E303C08AE201C081E3A4
:1019900090E008959091DF0292FF0DC0282F2871EA
:1019A000283019F4877F846006C0282F24712430E2
:1019B00011F48B7F886093FF0DC0282F2871283188
:1019C00019F4877E846106C0282F2471243111F414
:1019D0008B7E88612091E00220FF0DC0382F387186
:1019E000383019F4877F816006C0382F317131306B
:1019F00011F48E7F886021FF0DC0282F28712831B7
:101A000019F4877E816106C0282F2171213111F4DC
:101A10008E7E886194FD877E08950E94631E8111E9
:101A200002C00E94161F0E949E1E8093D302282F80
:101A300026952695269530E02430310524F08770D0
:101A400088618093D3028091D30280FF04C0869581
:101A50008695869501C080E00C94880E2091D30273
:101A6000822F869586958695482F50E04330510504
:101A700054F48F5F982F990F990F990F822F8770C9
:101A8000892B8093D3028091D30281608093D3020B
:101A90000E94A21E80919B0280FF11C08091D30200
:101AA0008695869586951F928F9383EC97E09F93FA
:101AB0008F930E9457060F900F900F900F90809178
:101AC000D3028695869586950C94880E8091D302D4
:101AD000982F969596959695A1F0915E990F990FEE
:101AE000990F8770892B8093D302887F91E009F446
:101AF00090E08091D30290FB80F98093D3020E9402
:101B0000A21E80919B0280FF11C08091D302869516
:101B1000869586951F928F938BEA97E09F938F937C
:101B20000E9457060F900F900F900F908091D30254
:101B30008695869586950C94880E8091D30280FDBB
:101B40001FC081608093D302813019F489E08093B3
:101B5000D3028091D3020E94A21E80919B0280FF3B
:101B600008C083E897E09F938F930E9457060F90D9
:101B70000F908091D3028695869586950C94880E59
:101B800008958091D30280FF14C08E7F8093D3028A
:101B90000E94A21E80919B0280FF08C080E797E010
:101BA0009F938F930E9457060F900F9080E00C94A4
:101BB000880E0895CF93C091D302C17080919B028B
:101BC00080FF0CC01F92CF9385E997E09F938F937E
:101BD0000E9457060F900F900F900F90CC2319F092
:101BE000CF910C94C10DCF910C949D0D9091D30287
:101BF000892F8695869586958F5F8F719770843033
:101C000038F4880F880F880F892B8093D30202C085
:101C10009093D3028091D302887F91E009F490E001
:101C20008091D30290FB80F98093D3020E94A21E80
:101C300080919B0280FF11C08091D302869586958A
:101C400086951F928F938CE597E09F938F930E94C8
:101C500057060F900F900F900F908091D3028695AA
:101C6000869586950C94880E843008F083E09091D8
:101C7000D3029770282F220F220F220F922B9093BE
:101C8000D302987F21E009F420E09091D30220FB59
:101C900090F99093D3020C94880E0E94340E809198
:101CA000D3020C94A21E9C01FB018281882349F17E
:101CB0002D3BFCE53F07C9F040F42B3BECE53E072C
:101CC00069F02C3B3C4561F008952F3B9CE53907BA
:101CD00091F070F0203C3C4589F0089583E001C00C
:101CE00080E00E944D0E80E008950E94660DFBCFBB
:101CF0000E942E0DF8CF0E94DA0DF5CF0E94F60D4E
:101D0000F2CF81E00895279A2F9808952F9808958B
:101D1000CF92DF92EF92FF92CF93C82F843050F48E
:101D2000811109C080918000877F809380000E948C
:101D3000860E06C0C3E0809180008860809380009A
:101D40002C2F30E0AFEFBFEF0E94EB2D23E030E00F
:101D500040E050E00E94C32DC9012C3764E13607F2
:101D600028F469E070E00E949B2D29C0DA01C901C6
:101D70008A50974DAF4FBF4F6627782F892F9A2FE4
:101D800025EF38E241E050E00E94C32D69017A015D
:101D9000CA01B9010E947F2D9B01AC01C701B601A8
:101DA0000E947F2DBB27A92F982F872F009721E016
:101DB000A207B10511F0BC0102C06FEF7FEF709375
:101DC0008D0060938C00CF91FF90EF90DF90CF90CB
:101DD000089508950E94830E8AE08093800089E12F
:101DE000809381008FEF9FEF909387008093860010
:101DF0000C940D0DCF93DF9397FF0DC0FB01228153
:101E0000222349F0EC010E944E0FCE019F770E94E1
:101E10008F0F0E94780F81E0DF91CF9108958CE0C1
:101E200090E00E94052E90E0A0E0B0E08093D40204
:101E30009093D502A093D602B093D70280919B02D3
:101E400080FF0EC08091D4021F928F938AEF97E09B
:101E50009F938F930E9457060F900F900F900F90B3
:101E600008956091D4028CE090E00C94132E80933E
:101E7000D4020E94310F80919B0280FF0EC080919E
:101E8000D4021F928F938BED97E09F938F930E94C4
:101E900057060F900F900F900F9008950E94851D88
:101EA0008093D8020E94981D8091D402813071F0F5
:101EB00048F0823081F08430A1F486EE0E94D11483
:101EC00088E10DC082EE0E94BF130BC088E193E051
:101ED0000E94080A06C082EE0E94BF1387E50E9496
:101EE000D1148FE39CE90197F1F700C00000089539
:101EF0008091D402813039F040F0823031F084306A
:101F000051F488E206C08CE204C082EE0E9469149B
:101F100002C00E94D1148091D8020C94951D0F9399
:101F20001F93CF93DF938C01CCE0D0E0C8010C2E3F
:101F300002C0969587950A94E2F78F700E946C0A0A
:101F40000E94D1142497CC3F8FEFD80779F7DF9107
:101F5000CF911F910F9108950F931F93CF93DF930C
:101F6000EC018B01FB018281882301F1C33EFCE57A
:101F7000DF07B9F050F4C13EECE5DE0781F0C23E68
:101F8000FCE5DF0799F481E00FC0C43E8CE5D8077B
:101F900051F0C53EECE5DE0749F484E005C080E081
:101FA00003C082E001C083E00E94370FB801CE0178
:101FB000DF91CF911F910F910C94FA0E0F931F9305
:101FC000CF93DF93C62FD42F122FFC018281882359
:101FD000C9F06093E9010E948A209093E801809300
:101FE000E70180E28C0F883008F057C0C77081E0AD
:101FF00001C0880FCA95EAF7DF91CF911F910F9129
:102000000C94E4148091E901681330C08091E701D9
:102010009091E8010E949620883C910538F500E2F5
:102020000D0FCD17B9F080E28C0F883040F4C770E7
:1020300081E001C0880FCA95EAF70E94EB140830CE
:1020400028F581E09D2F977001C0880F9A95EAF7D7
:102050000E94E414812F0E94D1140830F0F4D7704C
:1020600081E001C0880FDA95EAF70AC080E28C0FA0
:10207000883098F4C77081E001C0880FCA95EAF7EC
:10208000DF91CF911F910F910C94EB14812FDF9171
:10209000CF911F910F910C94D114DF91CF911F918B
:1020A0000F9108959C01CB01233F4CE53407F9F0D3
:1020B00078F4283DFCE53F07B9F0293D4CE53407AD
:1020C00011F1273D3C4531F526E241EE61EE1EC09F
:1020D000253FFCE53F0799F070F0263F3C45D1F4E1
:1020E00027E245EE66EE12C027E245EE0EC026E27C
:1020F00041EE60EE0BC027E245EE64EE07C026E23B
:1021000041EE62EE03C028E241E065EE0E94DE0F80
:1021100080E00895FC018281882319F01092E90182
:10212000089581E00895CF93DF93EC01FB01828154
:10213000882309F41FC1C230FCE5DF0708F41BC186
:10214000C6319CE5D90738F09E012A5F3C4529300D
:10215000310508F010C10E94801E9093E002809328
:10216000DF02C031ECE5DE0709F4C3C008F041C06E
:10217000C8308CE5D80709F49AC0F0F4C430ECE517
:10218000DE0709F487C068F4C2308CE5D80709F48B
:1021900077C0C330DC4509F0E3C08091DF02826084
:1021A00076C0C630ECE5DE0709F46EC008F07BC0EF
:1021B0008091DF0288606BC0CC308CE5D80709F4D1
:1021C00085C068F4CA30ECE5DE0709F474C008F095
:1021D00079C00E94A2178091DF02806858C0CE307B
:1021E0008CE5D80709F476C008F07FC08091DF0243
:1021F0008BC0CB3FECE5DE0709F44FC018F5C331C7
:102200008CE5D80709F47DC078F4C131ECE5DE0730
:1022100009F473C0C231DC4509F0A2C00E94A217C4
:102220008091DF028F7733C0C5318CE5D80709F480
:1022300072C008F486C0CA3FDC4509F091C08091A5
:10224000E0023EC0CF3FFCE5DF0709F45FC058F471
:10225000CD3F9CE5D90709F444C008F43FC0809104
:10226000E00282602DC0C130FDE5DF0709F475C0D2
:1022700008F45DC0C230DD4509F072C080E06EC078
:102280008091DF02816003C08091DF0280618093D2
:10229000DF0266C08091DF0211C08091E00282609F
:1022A0008093E0025DC08091DF028062F0CF809178
:1022B000DF028064ECCF8091DF0288608460E7CF2A
:1022C0008160EECF8091DF028E7FE1CF8091DF02CF
:1022D0008D7FDDCF8091DF02877FD9CF8091E002B3
:1022E00018C08091E0028D7FDBCF8091DF028F7E6E
:1022F000CECF8091DF028F7DCACF8091DF028F7BAE
:10230000C6CF8091DF02877F8B7FC1CF8091E002B3
:102310008D7F8E7FC5CF8091DF0282FB222720F93F
:1023200091E0922790FB82F990FB83F9B0CF8091E6
:10233000E002982F909591708E7F892B90FB81F908
:10234000AFCF0E94A2178091DF0287FB222720F9DE
:1023500091E0922790FB87F99ACF81E00E94181FA5
:102360008091DF029091E0020E94911E0E94A217CC
:1023700080E001C081E0DF91CF910895CF93DF939A
:1023800086319C4541F5EB010E94851D982F8A817D
:102390002091000130910101882379F09A7A81E03F
:1023A00009F480E08093EA01911102C069E201C062
:1023B00065E3C9010E94D51F0AC08091EA0181111D
:1023C00002C069E201C065E3C9010E94E01F0E94EA
:1023D000D61D80E001C081E0DF91CF9108959093F8
:1023E000F0018093EF010895E091EF01F091F00189
:1023F000309721F00190F081E02D099480E008955C
:10240000EF92FF921F93CF93DF93FC01A091EF0116
:10241000B091F001109709F442C080911201882315
:1024200041F08091DF0287FF04C08081818385E0D5
:102430008083EF011296ED91FC911397CE010995DF
:1024400080919B0282FF2BC080FF04C082E298E053
:102450000E94BE0518E08CE1E82E88E0F82E8091FD
:102460009B0280FF0BC088811F928F93FF92EF9297
:102470000E9457060F900F900F900F9011502196C9
:102480001111EDCF80919B0280FF09C08AE198E095
:10249000DF91CF911F91FF90EF900C94BE05DF91DB
:1024A000CF911F91FF90EF900895E091EF01F0918F
:1024B000F001309739F022E0DC012C930480F581A3
:1024C000E02D099408952091ED013091EE01281737
:1024D000390771F09093EE018093ED01E091EF01E7
:1024E000F091F001309721F00680F781E02D0994FA
:1024F00008952091EB013091EC012817390771F014
:102500009093EC018093EB01E091EF01F091F001E9
:10251000309721F00084F185E02D0994089585B766
:10252000806885BF85B7806885BF089508950C943D
:1025300096120C9497120C9496120C9496120E9478
:102540008F120E949B120C94991281E008950E94B0
:1025500081200E947D060E9456210E940D0D0C9440
:102560009D12CF93C82F80919B0282FF1EC080FFD7
:1025700004C08BE398E00E94BE0580919B0280FF1F
:102580000CC01F92CF9386E398E09F938F930E9495
:1025900057060F900F900F900F9080919B0280FF35
:1025A00004C084E398E00E94BE058C2FCF910C9468
:1025B000810A7F928F929F92AF92BF92CF92DF92C9
:1025C000EF92FF920F931F93CF93DF93CDB7DEB7B8
:1025D0002A970FB6F894DEBF0FBECDBF0E94EC065F
:1025E0000E94A512811111C08FEF89838A831B82FB
:1025F0000E948A208160782F9D838C8349815A8133
:102600006B818D810E948B134FC042EFA42E41E05D
:10261000B42E00E010E0702E802F0E9486076C011F
:10262000F501819091905F0188269926811491048B
:1026300031F40F5F1F4F0630110569F7D5CF809138
:102640009B0281FD0E948F0780E0EE24E394F12C31
:1026500094012E213F21232B09F18E837F82CE20EE
:10266000DF2081E0CD2809F480E088870E948A205D
:102670008160782F9A8789874E815F8168858A85F6
:102680000E948B13000F111FF801EE50FE4F808146
:102690009181E826F926F182E08206C08F5FEE0C78
:1026A000FF1C8E30A9F6C5CF0E94E90E0E9494242B
:1026B0000E94F4119091F1018917C9F00E94F41160
:1026C0008093F1012A960FB6F894DEBF0FBECDBFFE
:1026D000DF91CF911F910F91FF90EF90DF90CF90FE
:1026E000BF90AF909F908F907F900C94B1122A96DC
:1026F0000FB6F894DEBF0FBECDBFDF91CF911F9113
:102700000F91FF90EF90DF90CF90BF90AF909F9090
:102710008F907F900895CF93DF93CDB7DEB72B973F
:102720000FB6F894DEBF0FBECDBF4F8358876987C1
:102730007A878B87DE01119686E0FD0111928A95DA
:10274000E9F785E0FE01379601900D928A95E1F751
:1027500049815A816B817C818D819E810E94721A90
:102760002B960FB6F894DEBF0FBECDBFDF91CF9191
:102770000895FC01808191810E94461D0895CF93A8
:10278000882309F4A4C0C82F8238C1F40E94F41130
:1027900081FD9DC069E380910001909101010E943B
:1027A000D51F0E94D61D2FEF81EE94E0215080406E
:1027B0009040E1F700C0000069E319C0833801F5DB
:1027C0000E94F41180FD83C063E580910001909127
:1027D00001010E94D51F0E94D61D2FEF81EE94E0CB
:1027E000215080409040E1F700C0000063E58091F7
:1027F0000001909101010E94E01FCF910C94D61D21
:102800008438C1F40E94F41182FD61C067E48091B4
:102810000001909101010E94D51F0E94D61D2FEF4B
:1028200081EE94E0215080409040E1F700C000002C
:1028300067E4DDCF8CEF8C0F813AD0F46C2F809160
:102840000001909101010E94331F882349F06C2FF1
:1028500080910001909101010E94E01F0E94D61D0D
:102860006C2F80910001909101010E94D51FC5CF6E
:1028700080E28C0F883048F4C77081E001C0880F77
:10288000CA95EAF70E94881DB8CFEBE5EC0FE3305C
:1028900040F4F0E0EE58FE4F808190E0CF910C9430
:1028A0006312E8E5EC0FE73150F4F0E0EE0FFF1FA4
:1028B000EC5BFE4F80819181CF910C947912C03FE7
:1028C00030F08C2F0E941A23CF910C940724CF91C3
:1028D0000895882309F464C0823879F40E94F411C1
:1028E00081FF5EC069E380910001909101010E9427
:1028F000D51F0E94D61D69E310C08338B1F40E9431
:10290000F41180FF4DC063E58091000190910101B9
:102910000E94D51F0E94D61D63E580910001909111
:1029200001010E94E01F0C94D61D843879F40E94A6
:10293000F41182FF35C067E480910001909101019C
:102940000E94D51F0E94D61D67E4E7CF9CEF980F29
:10295000913A10F4682FE1CF90E2980F983050F43C
:10296000877091E001C0990F8A95EAF7892F0E943C
:102970008E1DD9CF9BE5980F933020F480E090E036
:102980000C94631298E5980F973120F480E090E062
:102990000C947912803F20F00E9482230C9407242B
:1029A0000895CF93C82F0E94BF13C93349F42FEF66
:1029B00087EE93E0215080409040E1F700C0000096
:1029C0008C2FCF910C946914882321F00E94881DCC
:1029D0000C94D61D0895882321F00E948E1D0C941E
:1029E000D61D0895CF92DF92EF92FF920F931F931F
:1029F000CF93DF937C01062FC72FFC011581129521
:102A00001F70D281D1110E94A81D0E947E1D8823B3
:102A100079F0DD2369F080E2800F883048F082E0B1
:102A20000E94201E0E947E1D91E0D82ED92601C052
:102A3000D12CCC2EC2948FE0C8228C2D90E0FC01CA
:102A4000EA5AFF4F0C94E52D8C2F807FCF7088239E
:102A500011F0C295C07FDD2399F0CC2309F4BCC1ED
:102A600080E2800F883010F0011104C08C2F0E948A
:102A7000881D03C08C2F0E949B1D0E94D61DACC1D7
:102A8000802F0E946914CC2309F4CBC180E2800F0F
:102A9000883010F0011104C08C2F0E948E1D03C0DD
:102AA0008C2F0E94A11D0E94D61DBBC18C2F807F40
:102AB000CF70803211F0C295C07F002319F0013031
:102AC000C9F024C0DD2371F0112341F0113031F43D
:102AD0000E94BB1D8C2B0E94C31DA3C10E94BB1D65
:102AE0008C2B0EC0112319F0113009F49AC10E94E9
:102AF000CC1D1EC0DD2339F0123008F092C18C2F9E
:102B00000E94E4148EC111118CC112C0DD2319F092
:102B10001123A9F361C1112359F0093309F06DC1E3
:102B2000FFEF27EE83E0F15020408040E1F763C1E2
:102B30008C2F0E94EB1475C18C2F8695869583701F
:102B400019F0813061F06DC1DD2321F0802F9C2FC1
:102B5000937002C080E090E00E9463126AC1DD239E
:102B600021F0802F9C2F937002C080E090E00E94A3
:102B700079125FC1DD23F9F0053F51F0063F71F096
:102B8000043FA9F48091D9029091DA0281600BC0D0
:102B90008091D9029091DA02826005C08091D902B9
:102BA0009091DA0284609093DA028093D902802FA8
:102BB0000E941A231EC0053F51F0063F71F0043FEA
:102BC000A9F48091D9029091DA028E7F0BC0809196
:102BD000D9029091DA028D7F05C08091D90290913F
:102BE000DA028B7F9093DA028093D902802F0E94C1
:102BF00082230E9407241DC18C2F837009F045C0D9
:102C0000D11113C1402F429546954770440F440F90
:102C1000602F6F70862F90E0A0E0B0E0042E04C01B
:102C2000880F991FAA1FBB1F0A94D2F704FF10C078
:102C30000FE010E020E030E004C0000F111F221F61
:102C4000331F4A95D2F7009510952095309503C013
:102C500000E010E09801C695C695C370BC01CD0197
:102C6000602B712B822B932BC23049F058F4C1306A
:102C700019F00E94C31BD9C00E94B11BD6C00E948C
:102C8000D51BD3C00E94AF1BD0C0DD2319F08C2F01
:102C9000817001C08695882309F4C7C0402F4295F2
:102CA00046954770440F440F602F6F70862F90E059
:102CB000A0E0B0E0042E04C0880F991FAA1FBB1F1C
:102CC0000A94D2F704FF10C00FE010E020E030E0DB
:102CD00004C0000F111F221F331F4A95D2F7009521
:102CE00010952095309503C000E010E09801C6953E
:102CF000C695C370BC01CD01602B712B822B932B29
:102D0000C23049F058F4C13019F00E94881C8DC0BF
:102D10000E94761C8AC00E949A1C87C00E94E91BF0
:102D200084C0CF70DD2339F08C2F0E940F1C802FC0
:102D30000E94E4147AC0802F0E94EB148C2F0E9412
:102D4000301C73C0023FF9F028F4003F41F0013F0E
:102D500099F03EC0033FF1F0043F31F139C0DD236B
:102D600039F011115EC08C2F8F710E94551C59C013
:102D7000123008F056C0F7CFDD2339F08C2F8F7159
:102D80000E940F1C4EC0DD23C9F38C2F8F710E944F
:102D9000301C47C0DD2329F08C2F8F710E94FA1B55
:102DA00040C00E94F51B3DC0DD2349F0CF718C2F40
:102DB0000E940F1C63E08C2F0E940B1E32C081E02A
:102DC0000E94201E123068F182E00E94201E29C05D
:102DD000DD2331F0112391F2802F0E94BF1321C017
:102DE000112399F2093349F49FEFE7EEF3E0915094
:102DF000E040F040E1F700C00000802F0E9469141D
:102E000010C04C2F4F70602FC7010E94FF0A0E9414
:102E1000201B0FC04C2F4F70602FC7010E94020B68
:102E200008C088EF8C0D843020F40E94F4110E94B9
:102E3000810ADD20C9F00E947A1D80FD15C0F701CE
:102E400012820E94741D0E940F1CC7010E94551718
:102E50000E94741DDF91CF911F910F91FF90EF9011
:102E6000DF90CF900C94301CDF91CF911F910F9188
:102E7000FF90EF90DF90CF9008950F931F93CF9323
:102E8000DF93EC01688179818A810E94511D8C0158
:102E90000E94AC1C0E949D1BB801CE010E94F2143E
:102EA000DF91CF911F910F910895CF93DF93FC0194
:102EB0009081818123813481232B31F08F3F31F444
:102EC00081E09F3F19F403C081E001C080E080FDF4
:102ED0000EC0EF01CF010E949A0A882341F0CE0173
:102EE0000E943D17CE01DF91CF910C94540ADF91DF
:102EF000CF910895882321F00E949B1D0C94D61D2C
:102F00000895882321F00E94A11D0C94D61D0895D8
:102F10000E94A81D0E94B81D0E94D61D0E94B325C4
:102F20000E94072480E090E00E94631280E090E01D
:102F30000C94791280910001909101010E94EB1F85
:102F40000C9488170E94981D0C949A17E92FE2950B
:102F5000EF704E2F50E0FA013297EE30F105B0F4E9
:102F6000EA59FF4F0C94E52D803F91F018F4883E0C
:102F700068F40EC0843F51F40BC0883E48F0813F96
:102F800029F406C093FB882780F9089580E008950E
:102F900081E008950E94461D0E94A6170895CF93D0
:102FA000DF9300D000D01F92CDB7DEB70F900F9007
:102FB0000F900F900F90DF91CF910895CF93DF93F3
:102FC00000D000D000D0CDB7DEB726960FB6F8946B
:102FD000DEBF0FBECDBFDF91CF9108951F93CF937A
:102FE000DF93C091FF0116E080910002C81799F0AD
:102FF000D0E01C9FF0011D9FF00D1124EF5FFD4FED
:103000004081518162817381848195810E94DE17A4
:103010002196C770E9CFDF91CF911F91089540911C
:1030200031025091320260913302709134028091EA
:103030003502909136020C94DE17CF9380913602C0
:1030400082958F7009F05FC080913302882309F464
:103050005AC08091FF01B091000270913102A0919D
:103060003202409134025091350291E07F3F09F0E5
:1030700090E0692FC6E08B1709F445C04115510552
:1030800021F0AF3F21F020E003C021E001C0262F56
:1030900090E020FD35C0C89FF001C99FF00D1124BC
:1030A000EF5FFD4F21812A132BC02081271328C0F9
:1030B0002281211125C0238134812417350710F482
:1030C00021503109241B350B283C3105C8F42091CF
:1030D00036022F7020612093360226E0289FF001EF
:1030E000299FF00D1124EA5FFD4F80818F70806170
:1030F000808381E392E00E945517CF910C94EE17E4
:1031000001968770B8CFCF910895AF92BF92CF92BA
:10311000DF92EF92FF920F931F93CF93DF93CDB780
:10312000DEB761970FB6F894DEBF0FBECDBF8C013E
:1031300085E0F801DE011D9601900D928A95E1F778
:10314000D8014C9111965C9111971296EC903091A8
:1031500031026091320280913402909135020097E1
:1031600031F06F3F31F421E03F3F19F403C021E01B
:1031700001C020E0B22FB170BB2E20FD60C1F8016C
:10318000C380D480A0903302AA2009F4EEC020911D
:103190003602C816D90628F0D601A81BB90BCD01F6
:1031A00004C0809590958C0D9D1DFF24F394883C60
:1031B000910580F0F12C207F09F09CC07C2DD98AEC
:1031C000C88A6E2D89890E94CF1781E392E00E9400
:1031D00055172DC1822F807F09F054C0561314C09B
:1031E000431312C0FE2CE1100FC02F7020612093FA
:1031F00036020E940F1881E392E00E9455178091D9
:103200003602F80185835CC1CD2831F05F3F31F48F
:1032100081E04F3F19F403C081E001C080E080FDF0
:1032200003C081E08E2502C080E090E0F82FF170AD
:10323000FF2E80FF1CC08091FF012091000236E02C
:10324000821709F41AC190E0389FF001399FF00D00
:103250001124EF5FFD4F6181561306C06081461354
:1032600003C06281E61203C001968770E9CFFE2C8D
:10327000EE2009F425C180913602816080933602E8
:10328000F12C1EC1561309C0431307C0E11005C03D
:1032900080913602F8018583A4C04D875E878D85B5
:1032A0009E850E94CA17882379F1EE2069F120914A
:1032B0003602822F82958F7090E0029774F0809191
:1032C00031029091320298878F831986DB86CA86F5
:1032D0002C87CE0107960E94551786E0F801A1E3DE
:1032E000B2E001900D928A95E1F70E941D180E94AC
:1032F0000F180DC0561771F04D875E878D859E851E
:103300000E94CA1781111AC0C8010E945517FF24D4
:10331000F394D6C04313F0CFE110EECF8091360284
:10332000F8018583C8010E94551786E0E1E3F2E0C9
:10333000DF011D928A95E9F7FA2CC2C0EE2021F335
:1033400020913602822F82958F7090E002972CF2A6
:1033500080913102909132029A8389831B82DD82AF
:10336000CC822E83CE010196B6CFC816D90628F09E
:10337000F601E81BF90BCF0104C0809590958C0DE8
:103380009D1D883C910548F0F12C7C2DD98AC88A76
:103390006E2D89890E94CF174AC0FE2CEE2009F4B9
:1033A000B3CF561333C0431331C02091360220FDF2
:1033B00024C0822F82958F70482F50E0411551050F
:1033C000E1F0D80115962C9315974F30510549F02F
:1033D0008F5F982F9295907F822F8F70892B1596F3
:1033E0008C93C8010E94551786E0F801A1E3B2E072
:1033F00001900D928A95E1F73DC086E0F801A1E3C6
:10340000B2E001900D928A95E1F75AC04D875E8730
:103410008D859E850E94CA1781115FCF80913602EB
:10342000816080933602C8010E94551749C0E1E3CC
:10343000F2E086E0DF011D928A95E9F71BC0EE20DD
:1034400009F462CF4D875E878D859E850E94CA17DD
:10345000F82E882309F458CF86E0F801A1E3B2E002
:1034600001900D928A95E1F781E392E00E94B913F1
:103470000E941D180E940F1823C04D875E878D85FE
:103480009E850E94461D292F22952F70223028F4F8
:103490009F7039F0811105C00BC0243028F49F7053
:1034A00049F4805E883020F0C8010E945517BF2C77
:1034B000FB2C06C0D80115969C91907F91F7F8CF10
:1034C0008F2D61960FB6F894DEBF0FBECDBFDF9192
:1034D000CF911F910F91FF90EF90DF90CF90BF9011
:1034E000AF9008951F93CF93DF93CDB7DEB72C979E
:1034F0000FB6F894DEBF0FBECDBF4F8358876987E4
:103500007A878B879C87CE0107960E94851888232F
:10351000D1F09F8188852A853B85232B31F08F3F11
:1035200031F481E09F3F19F403C081E001C080E0E5
:1035300080FD47C04F81588569857A858B859C853C
:103540000E94DE173EC086E0FE013796DE0111962E
:1035500001900D928A95E1F7FF81E8856A857B8568
:103560006115710531F0EF3F31F481E0FF3F19F44F
:1035700003C081E001C080E080FD23C020910002F3
:1035800030E0C9010196877099274091FF0150E012
:1035900084179507F1F1F983EA837D836C8396E0C4
:1035A000929FD001939FB00D1124AF5FBD4FFE01DC
:1035B000319601900D929A95E1F7809300020E9456
:1035C000EE1716E08091FF0190910002891771F1CA
:1035D000189FC00111248F5F9D4F0E94851888237A
:1035E00029F1E091FF011E9FF0011124EF5FFD4FD3
:1035F0004081518162817381848195810E94DE17AF
:103600008091FF0190E00196877099278093FF01D8
:10361000D9CF0E94A217109200021092FF01E1E39D
:10362000F2E086E0DF011D928A95E9F72C960FB64D
:10363000F894DEBF0FBECDBFDF91CF911F910895EB
:10364000EF92FF920F931F93CF93DF938C01892BFF
:1036500009F46CC0F12CEE24E394E8012196F80102
:103660008491843740F4843008F051C0813081F077
:10367000823019F15BC0853709F444C0A8F19CE79A
:10368000980F903708F052C08F770E94691441C09C
:103690000E5F1F4FFE01849190E2980F983050F416
:1036A0008770FE2D01C0FF0F8A95EAF78F2F0E94C9
:1036B000AB1D14C00E94BF132DC00E5F1F4FFE0133
:1036C000849190E2980F983060F48770FE2D01C0CD
:1036D000FF0F8A95EAF78F2F0E94B11D0E94D61D19
:1036E00019C00E94691416C00E5F1F4FFE01C491DD
:1036F000CC2381F08FE99FE00197F1F700C0000033
:10370000C150F6CF0E5F1F4FFE01F49003C00E9420
:10371000BF138E018F2D882309F49FCFEFE9FFE0BF
:103720003197F1F700C000008150F5CFDF91CF91C4
:103730001F910F91FF90EF900895089508950C94B4
:103740009E1B0C949F1B0E94A11B6093720270939E
:10375000730280937402909375020C9488170C94F2
:10376000A31B0F931F93009172021091730220917B
:10377000740230917502602B712B822B932B1F9159
:103780000F910C94A31B0F931F9300917202109141
:103790007302209174023091750260237123822399
:1037A00093231F910F910C94A31B0F931F930091D0
:1037B0007202109173022091740230917502602799
:1037C0007127822793271F910F910C94A31B0C94B0
:1037D0009E1B0E94E71B60936E0270936F028093A2
:1037E0007002909371020C94881760E070E0CB0136
:1037F0000C94E91B0F931F9341E050E060E070E0F0
:103800008A019B0104C0000F111F221F331F8A95DC
:10381000D2F7C901B8011F910F910C94E91B0F93C6
:103820001F9341E050E060E070E004C0440F551F7A
:10383000661F771F8A95D2F780916E0290916F0272
:10384000A0917002B09171028A019B01082B192B83
:103850002A2B3B2BC901B8011F910F910C94E91B36
:103860000F931F9341E050E060E070E004C0440F0C
:10387000551F661F771F8A95D2F740955095609522
:10388000709580916E0290916F02A0917002B0913C
:1038900071028A019B01082319232A233B23C901B2
:1038A000B8011F910F910C94E91B0F931F9341E0F6
:1038B00050E060E070E004C0440F551F661F771FA2
:1038C0008A95D2F780916E0290916F02A09170025A
:1038D000B09171028A019B01082719272A273B27EB
:1038E000C901B8011F910F910C94E91B0F931F930D
:1038F00000916E0210916F0220917002309171025E
:10390000602B712B822B932B1F910F910C94E91B31
:103910000F931F9300916E0210916F02209170021D
:103920003091710260237123822393231F910F91A1
:103930000C94E91B0F931F9300916E0210916F027C
:10394000209170023091710260277127822793279E
:103950001F910F910C94E91B08952EE0929F800D0A
:103960001124E82FE695E695E695877051E001C0B1
:10397000550F8A95EAF785E0E89FF0011124E95C8C
:10398000FD4F20E030E070E04081CB01022E02C00C
:10399000969587950A94E2F781708195842785230F
:1039A000842781932F5F3F4F2530310569F70895B4
:1039B0002EE0929F800D1124682F6695669566957E
:1039C000982F977085E0689FB001112440E050E087
:1039D00080E0FB01E40FF51FE95CFD4F208130E042
:1039E000092E02C0369527950A94E2F721703327F5
:1039F000042E01C0220F0A94EAF7822B4F5F5F4F1B
:103A00004530510531F70895BF92CF92DF92EF9282
:103A1000FF920F931F93CF93DF938C01C0906E02A0
:103A2000D0906F02E0907002F0907102809172026B
:103A300090917302A0917402B0917502C82AD92A9C
:103A4000EA2AFB2ACFE1D0E0D701C6010C2E04C040
:103A5000B695A795979587950A94D2F780FD04C0EF
:103A6000219790F7B12C07C0BC2EB8018C2F0E9473
:103A70001E0B0197A9F38B2DDF91CF911F910F9111
:103A8000FF90EF90DF90CF90BF900895CF93DF939A
:103A9000EC010E94041DBE010E941E0BDF91CF911C
:103AA00008951F93CF93DF93EB019091FE0199232B
:103AB00021F0CB010E94461D13C0882349F0CB01A1
:103AC0000E94041D182F682FCE010E94AD1C04C057
:103AD000CB010E94D81C182FBE01812F0E941E0B03
:103AE000DF91CF911F9108958091760285958595FC
:103AF0008595089580917602877008959091760259
:103B0000977081E009F480E0089580919A02089509
:103B100090919A02892B80939A02089580959091B2
:103B20009A02892380939A02089580939A020895B5
:103B300010929A02089590919902892B809399028C
:103B40000895809590919902892380939902089510
:103B500010929902089590919802892B809398026F
:103B600008958095909198028923809398020895F2
:103B700010929802089580917702089508950C9408
:103B8000BE1D0C94BF1D90917702981721F0809371
:103B900077020C94C11D089580917702882329F043
:103BA0001092770280E00C94C11D0895E09100010D
:103BB000F091010180919A028083E0910001F091DF
:103BC0000101908180919902892B8083E09100010D
:103BD000F0910101908180919802892B80838091DE
:103BE0007702882381F0E0910001F091010190813A
:103BF000892B808380910001909101010E941D1FFB
:103C000081110E94CC1D80910001909101010C94C2
:103C100000120C94BE1D98E0899F90011124262B60
:103C2000209376020E940F1C8091760285958595DF
:103C300085950C94091E1092760280E00C94091E62
:103C4000209176028095822380937602982F977038
:103C500079F430E0482F082E000C550B2417350757
:103C600039F08595859585950E94301C0C941B1E16
:103C70000895909385018093840108958295982FEB
:103C8000937344E0949F900111248C7C86958695D3
:103C9000282B822F8575880F2A7A2695822B0895E6
:103CA000CF93DF93D92F0E943E1EC82F8D2F0E94E5
:103CB0003E1E2C2F30E0322F2227A901482BCA01AB
:103CC000DF91CF91089580E090E00E940D2E21E0D9
:103CD0008C3E9E4F09F020E0822F089582E090E014
:103CE0000C94052E682F82E090E00C94132E83E054
:103CF00090E00C94052E682F83E090E00C94132E36
:103D0000CF9384E090E00E94052EC82F81E290E0DE
:103D10000E94052E2C2F30E0A901582BCA01CF910B
:103D20000895CF93C92F682F84E090E00E94132E4E
:103D30006C2F81E290E0CF910C94132E86E090E0FE
:103D40000C94052E682F86E090E00C94132EAB01A6
:103D5000BC018FE090E00C94252EAB01BC0183E107
:103D600090E00C94252E60E070E0CB010C94AD1E29
:103D700060E070E0CB010E94A71E0C94B31E6CEEB5
:103D80007EEF80E090E00E94312E60E082E090E0E3
:103D90000E94132E60E083E090E00E94132E1092A8
:103DA000720210927302109274021092750260E017
:103DB00084E090E00E94132E60E081E290E00E9497
:103DC000132E60E085E090E00E94132E60E086E014
:103DD00090E00E94132E6FEF87E090E00E94132E78
:103DE00040E050E0BA0188E090E00E94252E60E0BB
:103DF0008DE090E00E94132E40E050E0BA0188E18F
:103E000090E00E94252E60E087E190E00E94132E52
:103E100040E050E0BA018CE190E00E94252E60E085
:103E200080E290E00E94132E0C94B81E0C94BF1EEA
:103E3000682F8EE090E00C94132EFC013296809156
:103E40001201882331F08091DF0287FF02C09EE1DA
:103E500001C096E080E0915028F021912223D9F30F
:103E60008F5FF9CF0895662351F12091120122232B
:103E7000E9F02091DF0227FF19C0462F46954695AD
:103E800046954E31E0F4677021E030E002C0220F29
:103E9000331F6A95E2F7FC01E40FF11D828190E087
:103EA0002823392381E0232B69F409C0FC013296D1
:103EB00008962191621729F0E817F907D1F780E0F9
:103EC000089581E008959C01FC0132969FEF80E007
:103ED0004191461789F09F3F19F4411101C0982F75
:103EE0008F5F8630A9F79F3F39F0F901E90FF11D87
:103EF00097FDFA956283089508959C012A5F3F4FCC
:103F0000FC014281461301C0128201968217930779
:103F1000B9F70895262F2695269526952E3170F40B
:103F2000FC01E20FF11D677021E030E001C0220FBB
:103F30006A95EAF78281282B2283089580919B025B
:103F400080FF0CC01F926F938CE698E09F938F9335
:103F50000E9457060F900F900F900F900895262FF4
:103F60002695269526952E3178F4FC01E20FF11D59
:103F7000677021E030E001C0220F6A95EAF72095D2
:103F8000828128232283089580919B0280FF0CC0A8
:103F90001F926F938EE498E09F938F930E94570631
:103FA0000F900F900F900F900895209112012223EF
:103FB00029F02091DF0227FD0C948A1F0C94631FC7
:103FC00020911201222329F02091DF0227FD0C9479
:103FD000AF1F0C947D1F20911201FC013296222309
:103FE00031F08091DF0287FF02C08EE101C086E0E0
:103FF000DF011D928A95E9F7089508950C94FD1F3D
:10400000CF930E9493060E94EC060E94FE1FC0E020
:104010008C2F0E948607892B29F4CF5FC630C1F709
:1040200080E001C081E0CF9108950C94FD1F0C94B5
:1040300015200E9417208091E502843061F11092D2
:104040009C0220E488E190E00FB6F894A895809354
:1040500060000FBE2093600080E00E94880E80E028
:104060000E94810A0E94172083B7817F846083BFEA
:1040700083B7816083BF7894889583B78E7F83BF31
:104080000FB6F894A89580916000886180936000D5
:10409000109260000FBE08950C94FD1F0E94A2179D
:1040A0000E940D0D0E94F4110E94810A0C944C2074
:1040B0001F920F920FB60F9211248F939F93AF937D
:1040C000BF9380919C02811113C08091DB0290917B
:1040D000DC02A091DD02B091DE024196A11DB11D6E
:1040E0008093DB029093DC02A093DD02B093DE02AA
:1040F000BF91AF919F918F910F900FBE0F901F9026
:10410000189582E084BD93E095BD9AEF97BD8093AA
:104110006E0008952FB7F8948091DB029091DC0235
:10412000A091DD02B091DE022FBF0895CF92DF9201
:10413000EF92FF920F931F932FB7F8944091DB02F9
:104140005091DC026091DD027091DE022FBF6A01A6
:104150007B01EE24FF248C0120E030E0C016D10664
:10416000E206F30610F4415051099A01281B390B5D
:10417000C9011F910F91FF90EF90DF90CF900895AC
:1041800078941F920F920FB60F9211248F939F93E2
:10419000AF93BF938091DB029091DC02A091DD028E
:1041A000B091DE020196A11DB11D8093DB029093B8
:1041B000DC02A093DD02B093DE02BF91AF919F912C
:1041C0008F910F900FBE0F901F90189581E08093F4
:1041D000E00080E28093D8001092C9008FE19EE455
:1041E0000197F1F700C0000087E090EBDC018093BD
:1041F000EE029093EF02A093F002B093F1029CE0E4
:1042000088E10FB6F894A895809360000FBE909354
:104210006000FFCFAF92BF92CF92DF92EF92FF92FA
:104220000F931F93CF93C0E0CC24C394D12CE82EDE
:10423000F12C8C2F0E9486075C0100E010E0C60183
:10424000002E02C0880F991F0A94E2F78A219B2151
:10425000892B31F40F5F1F4F0E30110581F70AC013
:10426000602F7C2F80E00E94030BE816F90691F77F
:1042700081E004C0CF5FC630E1F680E0CF911F91AE
:104280000F91FF90EF90DF90CF90BF90AF90089587
:10429000CF93C82F8CE20E940A21882321F08C2F13
:1042A000CF910C940A2180E0CF910895CF930E9482
:1042B000631E811102C00E94161F81E998E00E94CE
:1042C000BE05C5E6C15049F00E94EC068FE39CE9AB
:1042D0000197F1F700C00000F5CF8AE898E00E944E
:1042E000BE0589E20E944821811120C18AE20E9414
:1042F000482181110E94161F85E00E9448218111EA
:104300000E94E6200E946E1E80939B0287E00E941E
:1043100048218823A9F18BE10E944821882351F08C
:1043200080919B0281FB222720F991E0922790FB4C
:1043300081F90EC08EE00E944821882361F08091AF
:104340009B0282FB222720F991E0922790FB82F9C1
:1043500080939B0215C080E10E94482190919B02AE
:10436000882341F093FB222720F981E0822780FBFC
:1043700093F904C0892F809580FB90F990939B025C
:1043800080919B020E94721E0E94801E9093E00208
:104390008093DF0280EE0E944821882341F08091C3
:1043A000DF02982F909590FB80F98093DF0289E3DC
:1043B0000E944821882359F08091DF0281FB222747
:1043C00020F991E0922790FB81F98093DF0282EE41
:1043D0000E944821882359F08091DF0282FB222726
:1043E00020F991E0922790FB82F98093DF0286EE1C
:1043F0000E944821882359F08091DF0283FB222705
:1044000020F991E0922790FB83F98093DF0283EEFD
:104410000E944821882359F08091DF0284FB2227E3
:1044200020F991E0922790FB84F98093DF0285E3E5
:104430000E944821882359F08091DF0285FB2227C2
:1044400020F991E0922790FB85F98093DF0281E3C8
:104450000E944821882359F08091DF0286FB2227A1
:1044600020F991E0922790FB86F98093DF0281E1A9
:104470000E944821882359F08091DF0287FB222780
:1044800020F991E0922790FB87F98093DF028091D9
:10449000DF029091E0020E94911E87E20E94482173
:1044A000C82F8EE10E9448218111C2608FE10E94D5
:1044B00048218111C46080E20E9448218111C860B6
:1044C00081E20E9448218111C06182E20E9448215C
:1044D0008111C06283E20E9448218111C06484E29C
:1044E0000E944821882311F0C06802C0CC2329F023
:1044F0008C2F0E947B1E6C2F03C00E94771E682F9A
:1045000070E080E090E00E94AF1B8FE00E944821A5
:10451000882319F081E00E94181F85E10E9448213C
:10452000882321F080E0CF910C94181FCF9108953B
:104530008091A60280FF0BC06091060185E0689F14
:10454000B001112475956795759567952BC081FF0E
:1045500009C06091060185E0689FB001112475953E
:10456000679520C082FF07C06091060185E0689FC3
:10457000B001112417C09091A5029923D1F0609148
:104580000501961788F72091060185E0289F900184
:104590001124929FA001939F500D112470E0CA0135
:1045A0000E94AF2D6038710540F46115710519F452
:1045B00006C065E070E0862F08958FE7089581E0DA
:1045C00008958091A60280FF08C06091030170E009
:1045D000759567957595679521C081FF06C06091B7
:1045E000030170E07595679519C082FF04C0609162
:1045F000030170E010C09091A502992399F0609199
:1046000002019617A0F780910301899FC001112430
:1046100070E00E94AF2D6038710540F4611571059E
:1046200019F406C061E070E0862F08958FE70895C1
:1046300081E00895803F21F40E949822819504C072
:10464000813F29F40E9498228093AA020895823F14
:1046500021F40E949822819504C0833F29F40E948E
:1046600098228093A9020895893F19F40E94E122BB
:1046700005C08A3F31F40E94E12281958093AB020C
:1046800008958B3F21F40E94E122819504C08C3F64
:1046900029F40E94E1228093AC020895843F21F422
:1046A0008091A802816017C0853F21F48091A80203
:1046B000826011C0863F21F48091A80284600BC003
:1046C000873F21F48091A802886005C0883F31F4BB
:1046D0008091A80280618093A80208958D3F21F403
:1046E0008091A60281600BC08E3F21F48091A602CA
:1046F000826005C08F3F29F48091A6028460809378
:10470000A6020895803F39F48091AA0287FF6CC009
:104710001092AA0269C0813F29F48091AA0218165A
:10472000BCF362C09091A902823F29F497FF5CC05C
:104730001092A90259C0833F19F41916CCF354C042
:10474000893F41F48091AB0218160CF04DC01092D5
:10475000AB024AC08A3F29F48091AB0287FF44C074
:10476000F6CF8B3F39F48091AC0287FF3DC01092A9
:10477000AC023AC08C3F29F48091AC021816BCF30D
:1047800033C0843F21F48091A8028E7F17C0853FFB
:1047900021F48091A8028D7F11C0863F21F4809181
:1047A000A8028B7F0BC0873F21F48091A802877FEE
:1047B00005C0883F31F48091A8028F7E8093A802C3
:1047C00013C08D3F21F48091A6028E7F0BC08E3FD7
:1047D00021F48091A6028D7F05C08F3F29F480913E
:1047E000A6028B7F8093A6028091A90281110EC040
:1047F0008091AA0281110AC08091AB02811106C08A
:104800008091AC02811102C01092A502089580919E
:104810009B0283FF7EC08DEC98E00E94BE058091D4
:10482000A8021F928F9388EC98E09F938F930E9429
:10483000570686EC98E00E94BE058091A902282FB9
:10484000082E000C330B3F938F9383EC98E09F93DB
:104850008F930E94570681EC98E00E94BE058091DC
:10486000AA02282F082E000C330B3F938F938EEB58
:1048700098E09F938F930E9457068CEB98E00E94DC
:10488000BE058091AB02282F082E000C330B3F93FE
:104890008F9389EB98E09F938F930E94570687EB45
:1048A00098E00E94BE058091AC02282F082E000CD3
:1048B000330B3F938F9384EB98E09F938F930E94E9
:1048C000570681EB98E00E94BE058091A5021F92D9
:1048D0008F938EEA98E09F938F930E9457068CEAFD
:1048E00098E00E94BE058091A6021F928F9389EAEC
:1048F00098E09F938F930E94570686EA98E00E9463
:10490000BE058DB79EB74C960FB6F8949EBF0FBEEE
:104910008DBF87EA92E00E9455120E948A209093F0
:10492000A4028093A3020895CF93DF9300D000D018
:1049300000D0CDB7DEB786E0E7EAF2E0DE011196FF
:1049400001900D928A95E1F78091A902811105C02D
:104950008091AA02882309F47AC08091A1029091E3
:10496000A2020E949620AC019091A502992339F0F1
:104970002091070130E02417350758F068C02091D6
:104980009E028AE0289F900111242417350718F011
:104990005EC09F3F19F09F5F9093A5021092AB02FB
:1049A0001092AC028091A902181624F40E94982259
:1049B0008093A9028091A90287FF05C00E949822D6
:1049C00081958093A9028091AA02181624F40E946E
:1049D00098228093AA028091AA0287FF05C00E94B4
:1049E000982281958093AA023091A9023323E1F0A5
:1049F0002091AA022223C1F045EB3403C001112407
:104A0000992319F09093A90203C081E08093A90231
:104A100035EB2303C0011124992319F09093AA02C6
:104A200003C081E08093AA020E9407248091A30220
:104A30009091A4029093A2028093A10286E0FE01CD
:104A40003196A7EAB2E001900D928A95E1F7809144
:104A5000AB02811105C08091AC02882309F47AC0B1
:104A600080919F029091A0020E949620AC019091AB
:104A7000A502992339F02091040130E0241735076D
:104A800058F068C020919D028AE0289F900111246F
:104A90002417350718F05EC09F3F19F09F5F909371
:104AA000A5021092A9021092AA028091AB021816D8
:104AB00024F40E94E1228093AB028091AB0287FF35
:104AC00005C00E94E12281958093AB028091AC02E7
:104AD000181624F40E94E1228093AC028091AC026B
:104AE00087FF05C00E94E12281958093AC0230913E
:104AF000AB023323E1F02091AC022223C1F045EB5D
:104B00003403C0011124992319F09093AB0203C020
:104B100081E08093AB0235EB2303C001112499237C
:104B200019F09093AC0203C081E08093AC020E9424
:104B300007248091A3029091A4029093A0028093F5
:104B40009F0286E0FE013196A7EAB2E001900D9245
:104B50008A95E1F726960FB6F894DEBF0FBECDBF5B
:104B6000DF91CF910895E7EAF2E086E0DF011D9240
:104B70008A95E9F71092A5021092A60208958091F5
:104B8000D00208959FB7F8941092AF029FBF909102
:104B9000E502943009F057C09091E9009F70309180
:104BA000EC00232F217030FD20E8922B23E020938E
:104BB000E9002091EB0020FF43C02091EE0027FF89
:104BC0003FC02091AD02222321F02091E80025FF73
:104BD00037C01092AD0226E03091E80035FD15C0D7
:104BE0003091E502343061F53091EB0035FD28C09D
:104BF000215021F481E08093AD0222C0EFE9FFE073
:104C00003197F1F700C00000E7CF8093F100809169
:104C1000E80085FD0AC08091E80080FFFCCF80910C
:104C2000E8008E778093E80006C08FB7F89421E003
:104C30002093AF028FBF9F709093E90080E00895AA
:104C40009F709093E9008FEF0895CF93DF9300D08A
:104C50001F92CDB7DEB79091E502943019F58983A4
:104C60007B836A8382E08093E9008FEF9091E80074
:104C7000815095FD06C095ED9A95F1F700008111E0
:104C8000F5CF8091E80085FF0DC040E050E063E083
:104C900070E0CE0101960E94E2288091E8008E77B4
:104CA0008093E8000F900F900F90DF91CF910895BF
:104CB000CF93DF93EC010E94C528823011F084303D
:104CC00031F4BE0184E0DF91CF910C942526DF9171
:104CD000CF910895BC0183E00C942526CF93DF93F8
:104CE000EC010E94C528823011F08430F9F482E092
:104CF0008093E9008FEF9091E800815095FD06C008
:104D000095ED9A95F1F700008111F5CF8091E800BB
:104D100085FF0CC040E050E066E070E0CE010E94EC
:104D2000E2288091E8008E778093E800DF91CF91B0
:104D30000895CF93DF93EC010E94C528823011F0D3
:104D40008430D9F580911201882339F08091DF02F7
:104D500087FF03C060E282E002C068E081E08093E8
:104D6000E9008FEF9091E800815095FD06C095ED28
:104D70009A95F1F700008111F5CF8091E80085FF49
:104D80001CC080911201811105C040E050E068E034
:104D900070E003C070E040E050E0CE010E94E228E5
:104DA0008091E8008E778093E80080E2FE01A0EB1E
:104DB000B2E001900D928A95E1F7DF91CF910895CD
:104DC00085E199E00E94BE058091E402811109C04D
:104DD0000E94732A0E94D02A8091E200846080930E
:104DE000E200089581E199E00E94BE051092E4027C
:104DF00008958DE099E00C94BE0589E099E00C944B
:104E0000BE0585E099E00E94BE050C944E202091DD
:104E1000AE022F5F822F62E30E948F2D992319F03B
:104E20002093AE0208951092AE028091AF028823C3
:104E300071F18091E502843041F58091E9008F7035
:104E40002091EC00922F917020FD90E8892B93E047
:104E50009093E9009091EB0090FF14C09091EE00C8
:104E600097FF10C09091E80095FF03C01092F100E9
:104E7000F9CF9091E80090FF05C09091E8009E77EF
:104E80009093E8008F708093E9001092AF0208952C
:104E900042E061EC81E00E94EC2942E261EC82E0B8
:104EA0000E94EC2942E261EC83E00C94EC298091B1
:104EB000E702833009F460C030F4813071F0823051
:104EC00009F499C008958A3009F485C08B3009F43B
:104ED0006BC0893009F0A7C020C08091E602813AFA
:104EE00009F0A1C08091E800877F8093E80080915D
:104EF000EA029091EB02892B21F460E280EB92E0D0
:104F000003C060E080E090E070E00E942D29809175
:104F1000E8008B778093E80008958091E602813263
:104F200009F081C08091EA029091EB02029708F0AB
:104F30007AC08091E800877F8093E8008091E80044
:104F400082FD05C08091E5028111F8CF6CC02091EF
:104F5000F3008091F20090E0922B029729F4809167
:104F6000F1008B7F813021F48091F1008093D00299
:104F70008091E8008B7753C08091E602813A09F076
:104F800052C08091EA029091EB02892B09F04BC04C
:104F90008091E800877F8093E8008091E80080FF9F
:104FA000FCCF8091120136C08091E6028132D9F5A2
:104FB0008091EA029091EB02892BA9F58091E8009B
:104FC000877F8093E8000E94212A8091E8028093E5
:104FD00012010C94A2178091E602813221F5809192
:104FE000E800877F8093E8000E94212A8091E902EF
:104FF0008093D10208958091E602813AA1F48091D4
:10500000E800877F8093E8008091E80080FFFCCF74
:105010008091D1028093F1008091E8008E77809397
:10502000E8000C94212A089584B7877F84BF0FB6C7
:10503000F894A89580916000886180936000109238
:1050400060000FBE90E080E80FB6F8948093610096
:10505000909361000FBE0E949F120E94732A0E94CB
:10506000D02A8091E20084608093E20082EC95E295
:105070000E94391E78940E94642D0E94A71288E035
:1050800091E00E94EF1184EF98E00E94BE058091AC
:10509000E502853089F480EF98E00E94BE050E9409
:1050A00019208091E302882391F30E940020882335
:1050B00071F30E94CC28EBCF0E94D912E8CF0C9458
:1050C0006128292F332723303105C9F060F42130BE
:1050D000310581F02230310509F047C08BE590E0C1
:1050E00027E439E046C02132310511F12232310581
:1050F00061F13BC082E190E022EA39E03AC09927B1
:105100008130910561F040F08230910559F00397AC
:1051100061F5E9E1F9E008C0E3E4F9E005C0EFE298
:10512000F9E002C0EFE1F9E0849190E09F0121C035
:1051300063307105D0F4660F771FFB01E258FE4F14
:105140002081318189E090E014C06330710568F4FA
:10515000FB01EE0FFF1FE858FE4F20813181FB015C
:10516000EB58FE4F808190E004C080E090E020E0AA
:1051700030E0FA013183208308958091E502843084
:1051800011F081E0089582E008958091D2028111AA
:1051900002C00C94BD28089580E189BD82E189BDDB
:1051A00009B400FEFDCF8091D8008F7D8093D80098
:1051B0008091E00082608093E0008091E00081FDBA
:1051C000FCCF0895CF92DF92EF92FF920F931F933F
:1051D000CF93DF93EC018B017A010E94402A811169
:1051E00033C0E114F10439F0F70180819181081B8B
:1051F000190BC80FD91FC12CD12C0115110519F19C
:105200008091E80085FD16C08091E8008E7780933C
:10521000E800E114F10449F0F70180819181C80EA2
:10522000D91ED182C08285E00FC00E94402A882307
:1052300021F30AC089918093F10001501109FFEF19
:10524000CF1ADF0ADACF80E0DF91CF911F910F9163
:10525000FF90EF90DF90CF9008952091EC02309175
:10526000ED022617370748F06115710539F42091D2
:10527000E8002E772093E80001C0B901FC0120E08E
:105280006115710579F18091E5028823F1F185308E
:10529000F1F18091E80083FD3CC08091E80082FD3F
:1052A0002EC08091E80080FFEBCF2091F300809129
:1052B000F20090E0922B6115710551F08830910554
:1052C00038F421912093F100615071090196F3CFD8
:1052D00021E0089709F020E08091E8008E77809324
:1052E000E800CECF2111CFCF0AC08091E5028823FC
:1052F00061F0853061F08091E80083FD0AC0809103
:10530000E80082FFF2CF80E0089582E0089583E014
:10531000089581E008952091EC023091ED02261766
:10532000370748F06115710539F42091E8002E77B0
:105330002093E80001C0B901FC0120E0611571056E
:1053400091F18091E502882309F440C0853009F489
:105350003FC08091E80083FD3DC08091E80082FD60
:105360002FC08091E80080FFE9CF2091F300809169
:10537000F20090E0922B6115710559F0883091058B
:1053800040F424912093F100319661507109019607
:10539000F2CF21E0089709F020E08091E8008E77B5
:1053A0008093E800CBCF2111CCCF0AC08091E502D9
:1053B000882361F0853061F08091E80083FD0AC0A8
:1053C0008091E80082FFF2CF80E0089582E00895A6
:1053D00083E0089581E00895982F973068F59093C1
:1053E000E900981739F07091EC002091ED00509190
:1053F000F00003C0242F762F50E021FD02C09F5FF4
:10540000ECCF3091EB003E7F3093EB003091ED001C
:105410003D7F3093ED003091EB0031603093EB0035
:105420007093EC002093ED005093F0002091EE007B
:1054300027FDE5CF80E008958F708093E90081E03B
:1054400008958091E60287FF11C08091E80082FDF7
:1054500005C08091E5028111F8CF11C08091E8006C
:105460008B770BC08091E502882349F08091E8009A
:1054700080FFF8CF8091E8008E778093E800089550
:105480002091E4003091E50095E64091EC00842FF6
:10549000817040FF23C08091E80080FD1DC0809195
:1054A000E502882399F0853099F08091EB0085FD25
:1054B00011C04091E4005091E5002417350729F30D
:1054C000915011F09A01E1CF84E0089582E00895AF
:1054D00083E0089581E0089580E008954091E80018
:1054E00042FFDDCF08950E94E12A0E94E92AE0EE02
:1054F000F0E0808181608083E8EDF0E080818F774B
:10550000808319BCA7EDB0E08C918E7F8C93808155
:105510008F7E80831092E40208950F931F93CF93A0
:10552000DF930E94E12A0E94E92AC8EDD0E0888139
:105530008F77888388818068888388818F7D88833E
:1055400019BC1092E5021092E1021092E30210924F
:10555000E20200EE10E0F80180818B7F8083888179
:105560008160888342E060E080E00E94EC29E1EE07
:10557000F0E080818E7F8083E2EEF0E080818160C8
:105580008083808188608083F80180818E7F808322
:10559000888180618883DF91CF911F910F91089559
:1055A000E8EDF0E080818F7E8083E7EDF0E08081A0
:1055B0008160808384E082BF81E08093E4020C9468
:1055C0008D2AE8EDF0E080818E7F80831092E200EA
:1055D00008951092DA001092E10008951F920F9240
:1055E0000FB60F9211242F933F934F935F936F93B6
:1055F0007F938F939F93AF93BF93EF93FF9380918C
:10560000E10082FF0BC08091E20082FF07C0809121
:10561000E1008B7F8093E1000E9407278091DA00F0
:1056200080FF1FC08091D80080FF1BC08091DA00EE
:105630008E7F8093DA008091D90080FF0DC080E1D9
:1056400089BD82E189BD09B400FEFDCF81E0809370
:10565000E5020E94E02605C019BC1092E5020E94F6
:10566000F2268091E10080FF19C08091E20080FF66
:1056700015C08091E2008E7F8093E2008091E2006D
:1056800080618093E2008091D80080628093D8008E
:1056900019BC85E08093E5020E94FD268091E1001F
:1056A00084FF30C08091E20084FF2CC080E189BD7E
:1056B00082E189BD09B400FEFDCF8091D8008F7DC5
:1056C0008093D8008091E1008F7E8093E1008091EB
:1056D000E2008F7E8093E2008091E20081608093FF
:1056E000E2008091E102882311F084E007C08091FC
:1056F000E30087FD02C081E001C083E08093E50202
:105700000E9401278091E10083FF29C08091E2007F
:1057100083FF25C08091E100877F8093E10082E0D4
:105720008093E5021092E1028091E1008E7F8093E8
:10573000E1008091E2008E7F8093E2008091E200A0
:1057400080618093E20042E060E080E00E94EC290A
:105750008091F00088608093F0000E94F926FF910C
:10576000EF91BF91AF919F918F917F916F915F91D9
:105770004F913F912F910F900FBE0F901F90189552
:105780001F920F920FB60F9211242F933F934F93B6
:105790005F936F937F938F939F93AF93BF93CF93B9
:1057A000DF93EF93FF93C091E900CF708091EC00FD
:1057B000D82FD17080FDD0E81092E9008091F000E0
:1057C000877F8093F00078940E94042C1092E90067
:1057D0008091F00088608093F000CD2BCF70C09353
:1057E000E900FF91EF91DF91CF91BF91AF919F9130
:1057F0008F917F916F915F914F913F912F910F907A
:105800000FBE0F901F9018951F93CF93DF93CDB7C6
:10581000DEB7AA970FB6F894DEBF0FBECDBFE6EE97
:10582000F2E08091F100819322E0EE3EF207C9F7A9
:105830000E9457278091E80083FF2EC18091E602E5
:105840009091E702492F50E04A30510508F024C1F9
:10585000FA01EC58FF4F0C94E52D803821F0823886
:1058600009F01AC108C08091E2029091E3029923E5
:1058700089F082600FC08091EA028F70873008F053
:105880000BC18093E9008091EB0085FB882780F9AC
:105890001092E9009091E800977F9093E800809340
:1058A000F1001092F100D1C0282F2D7F09F0F4C033
:1058B000882319F0823061F0EFC08091E8028130D6
:1058C00009F0EAC0933009F080E08093E3022EC033
:1058D0008091E80281112AC08091EA028F702FEF37
:1058E000280F263008F0D8C08093E9002091EB0003
:1058F00020FF1CC0933021F48091EB00806214C023
:105900009091EB0090619093EB0021E030E0A901D1
:1059100002C0440F551F8A95E2F74093EA001092A7
:10592000EA008091EB0088608093EB001092E90020
:105930008091E800877F8093E8000E94212AACC014
:105940008111AAC01091E8021F778091E30080784E
:10595000812B8093E3008091E800877F8093E800AB
:105960000E94212A8091E80080FFFCCF8091E30013
:1059700080688093E300111102C082E001C083E0DF
:105980008093E50289C08058823008F085C08091FC
:10599000E8029091E9028C3D53E0950779F583E0A8
:1059A0008A838AE289834FB7F894DE01139620E058
:1059B0003EE051E2E32FF0E050935700E49120FFE6
:1059C00003C0E295EF703F5FEF708E2F90E0EA30FA
:1059D00010F0C79601C0C0968D939D932F5F243120
:1059E00049F74FBF8091E800877F8093E8006AE223
:1059F00070E0CE0101960E942D2916C06091EA0246
:105A00007091EB02AE014F5F5F4F0E945F28BC01B7
:105A1000892B09F441C09091E800977F9093E800AA
:105A200089819A810E948B298091E8008B778093ED
:105A3000E80032C0803881F58091E800877F80934C
:105A4000E8008091E1028093F1008091E8008E7778
:105A500072CF811121C08091E8029091E9029927CB
:105A60000297D4F48091E800877F8093E8008091CA
:105A7000E8028093E1020E94212A8091E1028111D3
:105A800006C08091E30087FD02C081E001C084E090
:105A90008093E5020E9448278091E80083FF0AC0B6
:105AA0008091E800877F8093E8008091EB0080621E
:105AB0008093EB00AA960FB6F894DEBF0FBECDBF61
:105AC000DF91CF911F910895CF938091E5028823B4
:105AD000A1F0C091E900CF709091EC00892F817006
