:100000000C9498050C94D0050C94D0050C94D00554
:100010000C94D0050C94D0050C94D0050C94D0050C
:100020000C94D0050C94D0050C942D2A0C94012B23
:100030000C947B240C94D0050C94D0050C94D00522
:100040000C94D0050C94D0050C94D0050C94D005DC
:100050000C94D0050C9402250C94D0050C94D0057A
:100060000C94D0050C94D0050C94D0050C94D005BC
:100070000C94D0050C94D0050C94D0050C94D005AC
:100080000C94D0050C94D0050C94D0050C94D0059C
:100090000C94D0050C94D0050C94D0050C94D0058C
:1000A0000C94D0050C94D0050C94D0050A00253092
:1000B000313662003A200025303258000A722F6330
:1000C00020303132333435363738394142434445B4
:1000D000460A006D637032333031372064656174D5
:1000E0007461636865642121210A006D6370323395
:1000F0003031372061747461636865642121210A9D
:1001000000170127001E001F0020002100290035D4
:1001100000220023002400250026000100B900145D
:10012000001A00080015001700060116011C00182F
:10013000000C00120013002B01E000040016000761
:100140000009000A00000000000B000D000E000F67
:10015000003300E400E2001D001B0006001900054A
:100160000019012B0411001000360037003800E69A
:1001700000E300B600B7004E004B00000000000096
:100180000000002E002D002F003000340000002C55
:10019000002A004D414A4250004F005200510000D9
:1001A000438452E10028000000000000000000002D
:1001B0000000000000675200000000000000000086
:1001C0000000000000000000000000A90000000086
:1001D000000000000028005F006000610056000081
:1001E0000000000000AC00AE00AB0000000000000A
:1001F0000062005C005D005E00570000000000002F
:10020000000000AA000000000000000000000059EB
:10021000005A005B0058000000000000000000A829
:1002200000000000000000000000000000000000CE
:1002300000000000000000000000000100010000BC
:1002400000000000000901010001001D011C010067
:100250000000003A003B003C003D003E003F0040F3
:10026000004100420043004400450000000000003F
:100270000000000000000000000000000024022236
:10028000021F022002210200000000000000000006
:10029000000000000000000000310226022F022FA3
:1002A0000036020000000000000000000000000016
:1002B0000000000000380227023002300037020040
:1002C000000000000000000000000000000000002E
:1002D0000000001E023100000000000000000000CD
:1002E000000000010001000000000000000000010B
:1002F00000010000000000000000000000000000FD
:1003000000000000000000000000000000000000ED
:1003100000000000000000000000000000000000DD
:100320000066520000000000000000000000000015
:1003300000000000000000000000000000000000BD
:1003400000000000000000000000000000000000AD
:10035000000000000000000000655268520000002C
:10036000000000000000000000000000000000008D
:10037000000000000000000000000000000000007D
:10038000000000000000002B004C000100010000F4
:10039000000000000000000100010000000000005B
:1003A00000000000000000000000000000007C00D1
:1003B000000000000000000000000000000000003D
:1003C000000000000000000000000000000000002D
:1003D000000000000000000000000000000000001D
:1003E000000000000000000000000000000000000D
:1003F00000000000000000000000000000000000FD
:1004000000027C000000000000000000000000006E
:1004100000000000000000000000000000000000DC
:1004200000000000000000000000000000000000CC
:1004300000A6000000000000000000000000000016
:10044000000100000000000000000000001E001F6E
:100450000020002100290000000000000000000032
:10046000000000007C000015000C001A00080022AB
:10047000000000000000000000000000000000007C
:1004800000000018000400160007000A0000000029
:10049000000000000000000000000000000000005C
:1004A000000000000000000000000000000000004C
:1004B000000000000000000000000000000000003C
:1004C00000E000000000000000000000000000004C
:1004D000000000000000002C00E1002A002B0000BA
:1004E00000000000000000000000520000000000BA
:1004F00000000000000000000000000000000000FC
:1005000000000000000000000000000000000000EB
:100510000014001A000800000000000000000000A5
:1005200000000000000000000000000000040016B1
:1005300000070000000000000000000000000000B4
:1005400000000000000000090000000000000000A2
:10055000000000000000000000000000000000009B
:100560000000001500000000000600000000000070
:100570000000000000000000000000000000002C4F
:1005800000E1000A00210000002B00000000000034
:1005900000005200000000000029001E001F002083
:1005A000002100220035003400230024002500E152
:1005B00000E1000052260033003600370013001C13
:1005C000002D002D0009000A00060015000F00276D
:1005D000002F0004001200080018000C00000000AA
:1005E0000007000B001700110016003000E1003377
:1005F0000014000D000E001B002E002E0005001040
:10060000001A0019001D00E100E300E200E0002AEA
:10061000002A0000000000000000004C0050004FC5
:10062000005200510000002C00E10031002B00E1DD
:1006300000E100E100E1002B003800E100280000AB
:1006400000E2001E001F00200021002200290000FF
:1006500052000000000000000000000000E000E088
:100660000014001A00080015000601000000000038
:10067000000000000000000000E100E1000400169E
:10068000000700090000000000000000000000005A
:1006900000000000002B002B000B000000060017DC
:1006A0000019010000000000000000000000000030
:1006B00000120011001B00E2002B000000000000EF
:1006C0000000000000000000000000000000002CFE
:1006D000002A0010001900050000000000000000C2
:1006E00000000000000000000044454255473A2049
:1006F00064697361626C65642E0A00444542554723
:100700003A20656E61626C65642E0A000A0025302D
:100710003258006C65645F7461736B3A20004F6EF1
:100720006573686F743A206163746976653A202551
:10073000640A00290A002575002F002575005D2830
:1007400000256400200025640020002564002000AE
:100750002564007C0025303258006D6F7573656B21
:100760006579205B62746E7C782079207620685DE4
:10077000287265702F61636C293A205B00626163A7
:100780006B6C6967687420737465703A2025750A0C
:10079000006261636B6C696768742064697361628D
:1007A0006C650A006261636B6C6967687420656ED2
:1007B00061626C650A006261636B6C6967687420D2
:1007C000746F67676C653A2025750A006261636B18
:1007D0006C696768742064656372656173653A204B
:1007E00025750A006261636B6C6967687420696EC5
:1007F0006372656173653A2025750A00556E6963F9
:100800006F646520696E707574206D6F6465207308
:10081000657420746F3A2025750A00556E69636F00
:10082000646520696E707574206D6F646520696EF3
:10083000697420746F3A2025750A000000000000DA
:100840000000002A2B28000000000000000000002B
:1008500000000000000029000000002C1E342021B0
:100860002224342627252E362D3738271E1F2021F7
:1008700022232425263333362E37381F0405060756
:1008800008090A0B0C0D0E0F101112131415161770
:1008900018191A1B1C1D2F3130232D35040506078E
:1008A00008090A0B0C0D0E0F101112131415161750
:1008B00018191A1B1C1D2F3130354C000000000088
:1008C0000000000000000000000000000000000028
:1008D0000000000000000000000000000000007E9A
:1008E0000F00D4FFFFFFC7000000780A0025303258
:1008F0005820006B6579626F6172645F7265706F1A
:1009000072743A200064656C5F6B65795F6269742C
:100910003A2063616E27742064656C3A202530327A
:10092000580A006164645F6B65795F6269743A209C
:1009300063616E2774206164643A20253032580A5E
:10094000005B735D005B575D005B535D005B525D58
:10095000005B445D005B435D002803450072006757
:10096000006F0064006F0078002000370036002020
:1009700000220048006F00740044006F00780022DD
:10098000000000220341006C007000610063006100
:100990000020004B006500790062006F006100726A
:1009A000006400730000000403090409025B0003F3
:1009B0000100A0FA0904000001030101000921114E
:1009C000010001224000070581030800010904011C
:1009D00000010300000009211101000122B60007F7
:1009E000058203200001090402000203000000093F
:1009F00021110100012222000705830320000107C5
:100A000005030320000112010002000000084B4111
:100A100001000100010200010631FF0974A1010972
:100A200075150026FF0095207508810209761500CE
:100A300026FF00952075089102C005010902A10159
:100A400085020901A10005091901290815002501E0
:100A50009508750181020501093009311581257F4D
:100A600095027508810609381581257F950175085D
:100A70008106050C0A38021581257F9501750881CC
:100A800006C0C005010980A101850319012AB7002C
:100A9000150126B700950175108100C0050C0901EC
:100AA000A101850419012AA002150126A0029501C1
:100AB00075108100C005010906A101850605071909
:100AC000E029E71500250195087501810205071940
:100AD0000029EF1500250195F0750181020508191F
:100AE000012905950575019102950175039101C0D4
:100AF00005010906A101050719E029E715002501EF
:100B00009508750181029501750881010507190095
:100B100029FF150026FF00950675088100050819B4
:100B2000012905950575019102950175039101C093
:100B300011241FBECFEFDAE0DEBFCDBF04B603FE47
:100B400018C08091180390911903A0911A03B091D5
:100B50001B038730904BA740B04B59F410921803F9
:100B60001092190310921A0310921B03E0E0F8E3AD
:100B7000099511E0A0E0B1E0E8EFFBE502C00590C7
:100B80000D92A239B107D9F723E0A2E9B1E001C083
:100B90001D92A831B207E1F70E945E190C94B32DA3
:100BA0000C940000FF93EF93E0919201F091930178
:100BB000309709F00995EF91FF910895FC01859117
:100BC000803011F0EFDFFBCF0895FF27E0E230E245
:100BD00047FF0CC0419597FF09C0EDE26095709505
:100BE00080959095611D711D811D911D27FF02C08B
:100BF000219530E350E2AA27660F771F881F991FBF
:100C0000AA1FA41710F0A41B63955A95A9F7AA3040
:100C100008F0A95FA05DAF93F3956115710581059B
:100C2000910541F7ED3211F4EF93F395F21718F4B3
:100C30003F93F395FBCF8F91B5DFFA95E1F70895D8
:100C4000E991F9918591803021F0853219F0AADF80
:100C5000F9CF089520E0E89455915532C1F350330F
:100C600011F4689455915A3348F4505390F3220F7D
:100C7000022E220F220F200D250FF4CF0EF4219506
:100C800089919991533619F3533729F1533559F115
:100C9000BC0188279927E8945C3621F489919991C1
:100CA00068945591543639F446EF7EF077FF0DC0C5
:100CB0008FEF9FEF0AC055374AE039F0583540E1D1
:100CC00021F0523642E009F00895FF93EF937DDF63
:100CD000EF91FF91B7CFFF93EF93FC0181918030AB
:100CE000B9F360DFFBCFFF93EF9368DFF1CFDF93C2
:100CF000CF93CDB7DEB72596A3DFCF91DF910895CF
:100D000080B38C7080BB81B38C7081BB0E94F10872
:100D1000089584B1807F84B985B18F6085B98AB127
:100D2000837F8AB98BB18C608BB93E98469A0E94BA
:100D30003A090895089508950E949B0608950E9417
:100D400080060E948906E8EEF1E084E991E01192C4
:100D50001192DC012EE01D922150E9F70E9621E060
:100D6000E43FF207A1F70E94F50908950E9480066A
:100D70000E948906E8EEF1E011821082138212824D
:100D800015821482178216821186108613861286A7
:100D900008959EE0899FF0011124EC56FE4F30E04B
:100DA00020E050E040E061E070E09191992359F03B
:100DB000DF01119791509C932F5F3F4F2E303105EB
:100DC000A1F7CA010895CB01022E02C0880F991F16
:100DD0000A94E2F7482B592BEFCFCF932EE0629F76
:100DE000B001112430E020E0A1E0B0E0C5E0AD01A9
:100DF000022E02C0440F551F0A94E2F748235923DC
:100E0000452B31F0F901E60FF71FEC56FE4FC0837A
:100E10002F5F3F4F2E30310551F7CF910895FF924C
:100E20000F931F93CF93DF930E941609C8EED1E072
:100E3000F12C83E0F81609F46FC08F1558F081E0AB
:100E4000F81609F46FC082E0F81609F468C0879AB2
:100E50008F9809C084E0F81609F45BC085E0F812A9
:100E6000F6CF809A88988F2D0E94F60880EA8A959E
:100E7000F1F78F2D0E94C9068C010E947009482F3E
:100E800050E0369952C020E830E04B9951C080E0E4
:100E900091E0822B932B4A994EC020E032E0822BC6
:100EA000932B1B994BC020E034E0822B932B1A9993
:100EB00048C020E038E0822B932B199945C020E0F0
:100EC00030E1822B932B189942C060E070E22991A7
:100ED0003991862B972B842B952B82279327802360
:100EE00091238901082719276F2D0E94ED06FE0125
:100EF0003297118300830E948006F39486E0F812F3
:100F000098CF0E949C0681E0CDB7DEB7E5E00C9457
:100F1000562D819A8998A7CF849A8C98A4CF859AC8
:100F20008D98A1CF869A8E989ECF30E020E0ADCFED
:100F300090E080E0AECF30E020E0B1CF30E020E0C4
:100F4000B4CF30E020E0B7CF30E020E0BACF70E09F
:100F500060E0BDCFE82FF0E0EE0FFF1FE851FE4F3D
:100F6000808191810895B0E0A0E0E9EBF7E00C9476
:100F7000372D8CEB90E00E94DE0588EEE82E81E0B4
:100F8000F82ED0E0C0E097EBC92E90E0D92E0EEA03
:100F900010E0DF93CF93DF92CF920E94770684EB2D
:100FA00090E00E94DE05F701819191917F010E94FE
:100FB000A80B9F938F931F930F930E9477068CEA41
:100FC00090E00E94DE0521968DB79EB708960FB679
:100FD000F8949EBF0FBE8DBFC630D105D1F6CDB7F8
:100FE000DEB7E8E00C94532D1092B9008CE08093AA
:100FF000B8000895B0E0A0E0E0E0F8E00C94342DF3
:10100000B82EEB010E94DB246C01EE24E394F12C5A
:10101000C431D10560F025E0E22EF12CCF3FDC0792
:1010200031F0CE0164E170E00E94C32C7B0184EAC0
:10103000A82E94E8992E1092BC00A092BC000E94A9
:10104000DB248C018091BC0087FF0DC08091B9002A
:10105000887F8830F9F08091B900887F8031D1F0A5
:101060000FEF1FEF08C0C8010E94F324E816F9062D
:1010700048F70EEF1FEFCF3FDC07E9F2C6010E94F1
:10108000F324C817D907B8F6C801CDB7DEB7EBE02F
:101090000C94502DB092BB009092BC000E94DB24B7
:1010A0008C018091BC0087FF0AC08091B900887FC5
:1010B000883111F08034A1F610E000E0E5CFC801DE
:1010C0000E94F324E816F90660F7D3CF0F931F931D
:1010D000CF93DF93EB018093BB0084E88093BC0047
:1010E0000E94DB248C018091BC0087FF11C02091FD
:1010F000B900287F81E090E0283211F490E080E090
:10110000919581959109DF91CF911F910F9108954C
:10111000CF3FDC0741F3C8010E94F324C817D90769
:1011200010F78EEF9FEFEFCF0F931F93CF93DF93C7
:10113000EC0184E88093BC000E94DB248C01809148
:10114000BC0087FF08C08091BB0090E0DF91CF9189
:101150001F910F910895CF3FDC0789F3C8010E94CA
:10116000F324C817D90758F78EEF9FEFEFCF84E924
:101170008093BC0008951092F4010E94F4072FEFB1
:1011800083ED90E3215080409040E1F700C00000E3
:1011900080E008951F93CF93DF93182FD62F80916F
:1011A000F401C0E08823C1F064E670E080E40E94AE
:1011B000FA07C82F81110EC064E670E0812F0E94EB
:1011C0006608C82F811106C064E670E08D2F0E946A
:1011D0006608C82F0E94B7088C2FDF91CF911F910E
:1011E00008956FE381E00E94CA08089561E070E00D
:1011F00001C0660F8A95EAF7609581E00E94CA08EF
:1012000008956FE780E00E94CA086FE782E00E94BD
:10121000CA086FE78CE00E94CA086FEF81E00E9465
:10122000CA0860EC83E10E94CA08089564E670E091
:1012300080E40E94FA07811112C00E94B7088091D1
:10124000F40181110BC081E08093F4010E94010937
:101250000E94D70F8BEE90E00E94DE0508958091EA
:10126000F4018823D9F31092F4010E94D70F83ED83
:1012700090E0F2CF0E94BB080E94160908950F93D8
:101280001F93CF93DF93D82F8B018091F401C0E09F
:10129000882301F164E670E080E40E94FA07C82F19
:1012A000811116C064E670E08D2F0E946608C82F79
:1012B00081110EC064E670E081E40E94FA07C82F35
:1012C000811106C084E690E00E949408F8018083B2
:1012D0000E94B7088C2FDF91CF911F910F91089535
:1012E000A1E0B0E0E6E7F9E00C943D2D1982BE01E3
:1012F0006F5F7F4F82E10E943F0989812196E2E082
:101300000C94592D279A2F9A0895259A2D9808956F
:10131000269A2E980895249A2C980895279A2F9803
:101320000895259A2D9A0895269A2E9A0895249A1A
:101330002C9A08950E9482090E9485090E948809BA
:101340000E948B0908950E948E090E9491090E94B3
:1013500094090E94970908950E94A3090E94850993
:101360002FEF80E792E0215080409040E1F700C0ED
:1013700000000E9488092FEF80E792E02150804012
:101380009040E1F700C000000E948B092FEF80E73A
:1013900092E0215080409040E1F700C000000E94A0
:1013A00091092FEF80E792E0215080409040E1F7D3
:1013B00000C000000E9494092FEF80E792E02150C6
:1013C00080409040E1F700C000000E9497090E9411
:1013D0009A092FE782E490E1215080409040E1F7A4
:1013E00000C000000E94A30908950E94AC090E9459
:1013F0009A0608958930B8F46630A8F44E3098F40F
:1014000050E09EE0699F400D511D1124FA0194E5C2
:10141000899FE00DF11D1124EE0FFF1FEF5FFE4FBE
:1014200085919491089581E090E008950E94FA09D1
:1014300008959C013A9521153F4150F5FC01EE2796
:10144000F170BC0166277270AC01442754709C0196
:101450002227387094FF0EC080E1EF2B09F480E062
:10146000672B09F08062452B09F08064232B89F0FB
:101470008068089581E0EF2B09F480E0672B09F084
:101480008260452B09F08460232B19F08860089551
:1014900080E00895CF93DF93EB010E94190AFE01CB
:1014A0000995DF91CF910895CF93DF93EC01805E92
:1014B0009109089720F063EB7FE0209711F468E62C
:1014C0007DE0CE010E944A0A8C2F0E945B0CDF91C6
:1014D000CF910895CF93DF93EC010E94ED0CCE01E4
:1014E000805E9109089720F06AEB7FE0209711F465
:1014F0006FE67DE0CE010E944A0ADF91CF91089508
:101500000F931F93CF93DF938C01EB010E94540A3A
:10151000209741F4C8010E946A0ADF91CF911F9180
:101520000F9108958FE99FE00197F1F700C0000047
:101530002197EECF70E060E08933910511F460E50A
:1015400070E00E94800A089581E0089581E0089586
:101550000E94A60A089508950E94AB0A0895A5E086
:10156000B0E0E5EBFAE00C943C2D49835A833091CE
:10157000FA0189819A81311119C0662399F02223D9
:1015800089F00E942C11182F682F89819A810E945E
:10159000081169817A81812F0E941F182596E3E046
:1015A0000C94582D0E941A11182FF3CF0E942C1161
:1015B00069817A81F1CFFC01262F408151816281BE
:1015C000738184810E94AF0A089581E00895CF93CA
:1015D000DF93EC0160E00E94DB0ABE010E94AC0ACE
:1015E000DF91CF91089508950E94D70F0E94F30ACA
:1015F0002FEF84E39CE0215080409040E1F700C051
:10160000000008950E94F40A0E94262508950E9471
:10161000F40A0E944A2508950F931F93CF93DF93F6
:101620008C0161E00E94DB0AEC01B8010E94A80A6B
:10163000811106C080E0DF91CF911F910F91089535
:10164000B801CE010E94C31D8823A1F3B801CE01C9
:101650000E94BE1E882371F3B801CE010E943F2272
:10166000882341F3B801CE010E946D20882311F335
:10167000B801CE010E94B1218823E1F2F8018281F4
:10168000882369F0C330FCE7DF0781F160F4C130E3
:10169000ECE7DE0769F1C0F4C115DC4791F0C80141
:1016A0000E94A40AC8CFCB35ECE7DE0739F1CC3570
:1016B000FCE7DF0701F1CA35DC4789F70E947315A3
:1016C000EECF0E94020BB6CF9091BD02892F8E7F84
:1016D00090FF81608093BD0280FF05C08BEF96E094
:1016E0000E94DE05A7CF89EE96E0FACF0E947B1517
:1016F0000E94070B9FCF0E946915D1CF0E947715DA
:10170000CECF0E94582480E00E94F81D0E94D20B88
:1017100008950E94851C0E94D60B0E945C240895A7
:10172000829590E09C01220F331F220F331F2C7CE7
:1017300095958795959587958373282B30E0C901FA
:10174000880F991F8A7A359527952575822B0895DC
:10175000CF93DF93D92F0E94900BC82F8D2F0E941B
:10176000900B9C2FDF91CF910895089581E008950B
:101770000895CF93DF93D82F0E94B60BC82F8823EC
:1017800019F08D2F0E94B80B8C2FDF91CF91089507
:101790000895CF93C82F0E94B50B8C2F0E94B90BD0
:1017A000CF91089580E00E94C90B08950E948D2278
:1017B0000E94C90B0895CF930E948D22C82F80915B
:1017C000F5018C1789F1C093F5010E94E72460931D
:1017D000F6017093F7018093F8019093F9018091DD
:1017E000BD0282FF1EC080FF1CC083E197E00E9403
:1017F000DE058091BD0280FF14C01F92CF938EE062
:1018000097E09F938F930E9477068091BD020F907F
:101810000F900F900F9080FF04C08CE097E00E9423
:10182000DE058C2F0E94C90BCF910895ABE0B0E08C
:10183000ECE1FCE00C943D2D4F83588769877A8753
:101840008B8761110E94A1141E821D8285E0FE011A
:101850003796DE01119601900D928A95E1F78C8101
:101860009D81892B61F449815A816B817C818D81B5
:101870009E810E94C6132B96E2E00C94592D89811B
:101880009A8189238F3F79F3CE0101960E94E50A60
:101890008111E9CFF0CFFC01808191810E945E111E
:1018A0000895662329F00E94E2190E94B51A08954E
:1018B0000E943C1AFACFCF93C82F8823C9F08238F0
:1018C000C9F40E948D2281FD13C089E30E94561441
:1018D0000E94C2142FEF87EE93E021508040904089
:1018E000E1F700C0000089E30E945E140E94C21468
:1018F000CF9108958338A1F40E948D2280FDF8CF06
:1019000083E50E9456140E94C2142FEF81EE94E0EA
:10191000215080409040E1F700C0000083E5E4CF13
:101920008438A1F40E948D2282FDE2CF87E40E94D8
:1019300056140E94C2142FEF81EE94E02150804093
:101940009040E1F700C0000087E4CECF8CEF8C0F11
:10195000813A90F46C2F80910001909101010E94D6
:101960005C23882329F08C2F0E945E140E94C214ED
:101970008C2F0E945614BACF80E28C0F883048F426
:10198000C77081E001C0880FCA95EAF70E948114F0
:10199000ADCFEBE5EC0FE33040F4F0E0E95BFE4F58
:1019A000808190E00E94FE22A3CFE8E5EC0FEB31AE
:1019B00050F4F0E0EE0FFF1FEF5EFE4F808191814B
:1019C0000E94232395CF83E38C0F833108F090CFBF
:1019D00061E08C2F0E94510C8BCF882309F456C0F4
:1019E000823879F40E948D2281FF50C089E30E94E1
:1019F00056140E94C21489E30E945E140E94C2140D
:101A00000895833859F40E948D2280FF3FC083E5FA
:101A10000E9456140E94C21483E5EECF843859F414
:101A20000E948D2282FF32C087E40E9456140E94D9
:101A3000C21487E4E1CF9CEF980F913AE8F290E26C
:101A4000980F983050F4877091E001C0990F8A95F3
:101A5000EAF7892F0E948714D1CF9BE5980F933026
:101A600028F490E080E00E94FE22089598E5980F07
:101A70009B3128F490E080E00E942323089593E3B3
:101A8000980F933118F460E00E94510C08951F9351
:101A9000CF93DF93182FEB010E945B0C209739F452
:101AA000812F0E94ED0CDF91CF911F9108958FE956
:101AB0009FE00197F1F700C000002197EFCF70E0A1
:101AC00060E0893311F460E570E00E94470D0895ED
:101AD000882321F00E9481140E94C2140895882353
:101AE00021F00E9487140E94C2140895B0E0A0E083
:101AF000ECE7FDE00C94362D6C01D62FC72FFC01CE
:101B00001281058102950F700E947714E82E8823B8
:101B1000E9F0E12E1123D1F08C2F807F803451F039
:101B200080E28D0F8830F8F0011104C08C2F807E88
:101B30008032C9F08091FF0282FF15C082E00E94CE
:101B400025150E94771491E0E82EE926BC2EB29468
:101B50009FE0B922FBE0FB15B8F1EB2DF0E0EB5470
:101B6000F24D0C940D2DE12CF1CF0C2F0F70C07F96
:101B700011F00295007F112399F0002359F080E2C3
:101B80008D0F883010F0D11107C0802F0E94811472
:101B90000E94C2148D2F5CC0802F0E949414F8CF35
:101BA0008D2F0E94ED0C002379F080E28D0F88309C
:101BB00010F0D11104C0802F0E94871403C0802F21
:101BC0000E949A140E94C214EB2DE850FF0B349728
:101BD00020F40E948D220E94C90BEE2089F00E9401
:101BE000731480FD0DC0F60112820E946D140E94D4
:101BF0006610C6010E94890F0E946D140E94761023
:101C0000CDB7DEB7E9E00C94522D2C2F2F70F22EB9
:101C1000C07FC03219F0F29480EFF822DD2351F03A
:101C2000D13009F443C0112309F44AC0002309F458
:101C300042C0B0CF8091FF0282FD15C0112359F040
:101C4000FF2029F08F2D0E9481140E94C21480E091
:101C50000E945B0CB9CF80E00E94ED0CFF2009F4DC
:101C6000B3CF8F2DA9CF112381F0011106C00E949F
:101C7000A4148F290E94680DA7CF0130C1F70E94DC
:101C8000A4148F290E94AB149FCF011106C00E949B
:101C9000B8148F2D0E946F0D97CF013009F494CFA7
:101CA0008F2D0E946F0D0E94B8148ECF112329F042
:101CB000023008F089CF8F2DDDCF011185CFE9CF1C
:101CC000002339F3D93349F43FEF87EE93E03150E5
:101CD00080409040E1F700C000008D2F0E94ED0C85
:101CE00073CF8C2F86958695837069F0813009F0CB
:101CF0006BCF8D2F9C2F9370111102C080E090E06C
:101D00000E94232361CF8D2F9C2F9370111102C04D
:101D100080E090E00E94FE2257CF612F8D2F0E941D
:101D2000510C52CF8C2F8370A1F511114DCF4D2F37
:101D3000429546954770440F440F2D2F2F7030E089
:101D4000042E02C0220F331F0A94E2F790E080E0D5
:101D5000D4FF09C08FE090E002C0880F991F4A9518
:101D6000E2F780959095C695C695C370822B932B0C
:101D7000C23049F058F4C13019F00E94361024CF17
:101D80000E942D1021CF0E943F101ECF0E942A10CA
:101D90001BCF8695112311F08C2F8170882309F4B5
:101DA00013CF4D2F429546954770440F440F2D2F6A
:101DB0002F7030E0042E02C0220F331F0A94E2F786
:101DC00090E080E0D4FF09C08FE090E002C0880F6F
:101DD000991F4A95E2F780959095C695C695C37070
:101DE000822B932BC23049F058F4C13019F00E9475
:101DF000A110EACE0E949810E7CE0E94AA10E4CE6D
:101E00000E944E10E1CECF70112329F08C2F0E943A
:101E100066108D2F2FCF8D2F0E946F0D8C2F0E945B
:101E20007610D2CED23F39F160F4D03FB9F0D13F35
:101E300081F0112309F445C00111ACCE8C2F8F71B4
:101E40001EC0D33FF9F0D43FA1F78091FF0282FD7D
:101E500023C08C2F8F71112311F311C0112339F07E
:101E60000111B2CE8C2F8F710E948810ADCE02303E
:101E700008F0AACEF7CF8C2F8F711111D0CF0E940E
:101E80006610A2CE112329F08C2F8F710E945A1058
:101E90009BCE0E94551098CE112349F0CF718C2F04
:101EA0000E94661063E08C2F0E9407158DCE81E0A2
:101EB0000E942515023008F487CE82E00E94251585
:101EC00083CE002359F0D93309F007CFEFEFF7EEB7
:101ED00023E0E150F0402040E1F7FDCE8C2F8F71E0
:101EE0009ECF0F931F93CF93DF93EC01688179818D
:101EF0008A810E9469118C010E94B3100E942910EE
:101F0000B801CE010E94760DDF91CF911F910F9104
:101F10000895CF93DF93EC018B819C81892B29F06D
:101F20008881998189238F3F51F4DF91CF91089562
:101F3000CE010E94710FCE010E94E70AF6CFCE01BA
:101F40000E940C0B8111F4CF0E947714882369F34F
:101F50008A81882351F38091FF0282FFE6CF82E0DD
:101F60000E942515E2CF882321F00E9494140E943C
:101F7000C2140895882321F00E949A140E94C2146A
:101F8000089590E080E00E94FE2290E080E00E94B0
:101F900023230E94A1140E94C2140E94531B0E947A
:101FA000B51A08950E9466140E94C10F08950E94F8
:101FB00091140E94D20F089592959F70963091F0DF
:101FC00058F4925F9F70923058F4803F19F030F4CB
:101FD000883E30F481E008959A5FF4CF843FD1F3D6
:101FE00080E00895883EB0F3813FD1F7F3CFFC0144
:101FF00083819481892B29F08081918189238F3F6E
:1020000011F480E00895808191810E945E110E9408
:10201000DC0F0895A5E0B0E0E0E1F0E10C943D2D87
:102020002596E2E00C94592DA6E0B0E0EAE1F0E15B
:102030000C943D2D2696E2E00C94592D08950E94B3
:102040001E1008950E941F1090932A028093290267
:10205000089508950E942210089520912902309138
:102060002A02822B932B0E9422100895209129028C
:1020700030912A02822393230E94221008952091F6
:10208000290230912A02822793270E942210089564
:102090000E941E1008950E94481008950E944B103F
:1020A0009093280280932702089590E080E00E9498
:1020B0004E10089521E030E0A90102C0440F551FE1
:1020C0008A95E2F7CA010E944E10089521E030E09F
:1020D00002C0220F331F8A95E2F780912702909168
:1020E0002802822B932B0E944E10089521E030E0AD
:1020F00002C0220F331F8A95E2F720953095809118
:10210000270290912802822393230E944E10089563
:1021100021E030E002C0220F331F8A95E2F7809160
:10212000270290912802822793270E944E1008953B
:102130002091270230912802822B932B0E944E106F
:1021400008952091270230912802822393230E9430
:102150004E1008952091270230912802822793275C
:102160000E944E1008950895262F277091E001C017
:10217000990F2A95EAF723E0769567952A95E1F776
:10218000660F771F660F771FFA01E60FF71F50E003
:1021900040E0682F70E08191DF0111979B01042ED0
:1021A00002C0369527950A94E2F7217021952827D9
:1021B000292328272C934F5F5F4F4430510559F74F
:1021C0000895A82FA77023E0969587952A95E1F7A3
:1021D000880F991F880F991FFB01E80FF91F50E026
:1021E00040E080E0219130E00A2E02C0369527952C
:1021F0000A94E2F721703327042E01C0220F0A94BB
:10220000EAF7822B4F5F5F4F4430510559F708952D
:10221000262F963070F48E3060F4682F70E08EE0D8
:10222000989F600D711D11244BEF51E0822F0E9489
:10223000B4100895292F963068F48E3058F490E049
:102240006BEF71E03EE0239F800D911D11240E94F1
:10225000E110089580E00895B0E0A0E0E2E3F1E14C
:102260000C94362D7C010091270210912802809158
:10227000290290912A02082B192BCFE0D0E0CC2420
:10228000C394D12CBC2EC6010C2E02C0880F991FFE
:102290000A94E2F780239123892B49F4219790F740
:1022A000B12C8B2DCDB7DEB7E9E00C94522DB701E0
:1022B0008C2F0E942B18019789F3F3CFCF93DF93D4
:1022C000EC010E942C11BE010E942B18DF91CF91CE
:1022D00008951F93CF93DF93EB019091FA01992317
:1022E00039F0CB010E945E11DF91CF911F910895CB
:1022F000882369F0CB010E942C11182F682FCE0182
:102300000E940811BE01812F0E942B18EDCFCB0136
:102310000E941A11182FF6CF1F93CF93DF93C0910D
:102320002B0216E080912C028C1304C0DF91CF9118
:102330001F910895D0E01C9FF0011D9FF00D112406
:10234000E35DFD4F4081518162817381848195817C
:102350000E9414102196C770E5CF40915D02509104
:102360005E0260915F0270916002809161029091C3
:1023700062020E941410089520912B0290912C0269
:1023800056E0291302C080E0089530E0529FF0012A
:10239000539FF00D1124E35DFD4F7181761306C04C
:1023A0007081781303C07281741304C02F5F3F4F94
:1023B0002770E7CF81E008951F93CF93DF9380913B
:1023C0006202807F09F04BC080915F02882309F48C
:1023D00046C080912B02C0912C0240915D02509129
:1023E0005E026091600270916102D42FD52316E0E5
:1023F000C817A9F190E061157105A9F1DF3F99F1C6
:10240000189FF001199FF00D1124DF01A35DBD4F4E
:1024100011962C911197251326C02C91241323C0BB
:1024200012962C91129721111EC013962D913C915A
:10243000261B370B283C3105B0F4809162028F7067
:10244000806180936202EE5CFD4F80818F708061BD
:1024500080838DE592E00E94890F0E948C11DF91AC
:10246000CF911F91089501968770C2CFA1E1B0E08E
:10247000ECE3F2E10C94332D8C0185E0F801DE01F0
:102480001D9601900D928A95E1F7F801F2808DE595
:10249000A82E82E0B82E4091600250916102411551
:1024A000510509F45AC190915D0220915E02892F75
:1024B00082238F3F09F451C1C080D18083809480F2
:1024C000E0905F02B401641B750BEE2009F4F6C0C6
:1024D00080916202382F307F683C710508F0AFC0F0
:1024E00031117AC0EF2C2D1116C09C1114C0F110BF
:1024F00012C08F708061809362020E94AD11C5018D
:102500000E94890F80916202F80185838E2D619669
:10251000ECE00C944F2D81149104C9F18C2D8D2188
:102520008F3FA9F181E08F2580FF05C04F2D6D2DD4
:102530008C2D0E94BC118114910459F18C2D8D2198
:102540008F3F39F181E08F25F82FF170BF2E80FF8A
:1025500039C04F2D6D2D8C2D0E94BC11A82E8111DC
:1025600031C0CD86DE868D859E850E945E11292F25
:1025700022952F70243078F49F702230A8F0992390
:10258000B9F0F8019581907F99F4EA2CBFCF80E0F3
:10259000CBCF80E0D9CF2A5F2F70223068F0C801FE
:1025A0000E94890FAB2CF1CF992311F0882369F396
:1025B000805E883050F3F3CF803F38F3815F833003
:1025C00070F7E3CFFF2009F4A1CF80916202816010
:1025D00080936202E12C9ACF2D1105C09C1103C09B
:1025E000FF2009F486C0C8010E94F70F882319F163
:1025F000FF2009F180916202803270F020915D022B
:1026000030915E0238872F8319869B868A868C8755
:10261000CE0107960E94890F86E0F801ADE5B2E091
:1026200001900D928A95E1F70E94DC110E94AD1194
:10263000EE24E3946BCFC8010E94890FF9CF3111CA
:1026400014C0782D998A888AA6016F2D89890E94E5
:102650000A108DE592E00E94890F86E0F501119243
:102660008A95E9F70E94AD11B5CF2D110EC09C11CE
:102670000CC0F1100AC08583C8010E94890F86E052
:10268000F50111928A95E9F741CFC8010E94F70F31
:10269000882389F2FF2079F280916202803208F467
:1026A000BBCF20915D0230915E023A8329831B8269
:1026B0009D828C828E83CE010196ACCF683C7105E1
:1026C00008F03DC0EF2CFF2009F4B5CF2D1129C033
:1026D0009C1127C08091620280FD1AC0982F907FC4
:1026E000B9F08583903F31F0982F907F905F8F7085
:1026F000892B8583C8010E94890F86E0F801ADE52A
:10270000B2E001900D928A95E1F70E94AD11FECEE4
:1027100086E0F801ADE5B2E001900D928A95E1F70F
:10272000F5CEC8010E94F70F811176CF8091620229
:10273000816080936202C8010E94890FE7CE782DE4
:10274000998A888AA6016F2D89890E940A1086E0DD
:10275000F50111928A95E9F7D8CFFF2009F46BCFE4
:10276000C8010E94F70FE82E882309F464CF86E0A1
:10277000F801ADE5B2E001900D928A95E1F78DE5A3
:1027800092E00E944B0C0E94DC11BFCFACE0B0E0A5
:10279000ECECF3E10C943C2D4F83588769877A87E2
:1027A0008B879C87CE0107960E9436128823B1F052
:1027B0008A859B85892B39F04F815885842F852305
:1027C0008F3F09F06CC016E080912B0290912C0293
:1027D000891343C02C96E3E00C94582D86E0FE014B
:1027E0003796DE01119601900D928A95E1F78A8560
:1027F0009B85892B41F38F81988589238F3F19F31E
:1028000020912C0230E0C9010196877099274091F0
:102810002B024817190671F40E94D70F10922C0250
:1028200010922B0286E0EDE5F2E0DF011D928A9521
:10283000E9F7C9CF96E0929FD001939FB00D112484
:10284000A35DBD4FFE01319601900D929A95E1F77F
:1028500080932C020E948C11B6CF819FC00111245D
:10286000835D9D4F0E943612882309F4B3CFE09117
:102870002B021E9FF0011124E35DFD4F4081518129
:1028800062817381848195810E94141080912B0252
:1028900090E001968770992780932B0295CF6985E8
:1028A0007A858B859C850E9414108DCF682F80912E
:1028B0000001909101010E94FE230895682F8091EC
:1028C0000001909101010E940C2408958091000163
:1028D000909101010E941A240895809183028595A8
:1028E00085958595089580918302877008959091CC
:1028F0008302977081E009F480E008958091A60238
:1029000008959091A602892B8093A6020895809540
:102910009091A60298239093A60208958093A60210
:1029200008951092A60208959091A502892B809394
:10293000A502089580959091A50298239093A502F1
:1029400008951092A5020895809184020895089533
:102950000E94A71408959091FF0292FF08C09091E1
:102960008402981721F0809384020E94A81408958D
:1029700080918402882329F01092840280E00E94D2
:10298000A8140895CF93DF93E0910001F091010125
:102990008091A6028083E0910001F0910101808185
:1029A0009091A502892B808390918402992381F0D4
:1029B000E0910001F09101018081892B8083809159
:1029C0000001909101010E94482381110E94B814D6
:1029D000C0910001D091010140E250E063E672E055
:1029E000CE010E94642D892B59F080E2FE01A3E6FE
:1029F000B2E001900D928A95E1F7CE010E949D22EE
:102A0000DF91CF91089508950E9403150895909144
:102A1000FF0292FF11C098E0899F90011124622B60
:102A2000609383020E94661080918302859585954C
:102A300085950E94041508950E94661008951092CD
:102A4000830280E00E94041508959091830280958E
:102A5000892380938302282F277091F4282F082E32
:102A6000000C330B9217130659F09091FF0292FF5E
:102A700007C08595859585950E9476100E941F1543
:102A80000895CF93C82F8091FF0282FB992790F978
:102A90009C17E9F0C0FB82F98093FF028091FE024F
:102AA0009091FF020E949C1582E00E942515809162
:102AB000BD0280FF0CC01F92CF938EE197E09F93E1
:102AC0008F930E9477060F900F900F900F90CF91E9
:102AD00008958091FF0282FB882780F991E0892781
:102AE0000E944115089581E00E944115089580E0FB
:102AF0000E94411508956FEF7FEF90E080E00E9403
:102B00009D2D089590E080E00E94792D21E0873E80
:102B10009E4F09F020E0822F089582E090E00E940D
:102B2000712D089583E090E00E94712D089584E056
:102B300090E00E94792D0895BC0184E090E00E940D
:102B40009D2D0895AB01BC018FE090E00E94912D76
:102B50000895AB01BC0183E190E00E94912D08959E
:102B600060E070E0CB010E94A915089560E070E07C
:102B7000CB010E94A2150E94B015089567EE7EEF6A
:102B800090E080E00E949D2D60E082E090E00E9455
:102B90007F2D60E083E090E00E947F2D10922A025A
:102BA0001092290260E074E184E090E00E949D2D83
:102BB00060E086E090E00E947F2D6FEF87E090E07C
:102BC0000E947F2D40E050E0BA0188E090E00E9432
:102BD000912D60E08DE090E00E947F2D40E050E07C
:102BE000BA0188E190E00E94912D60E087E190E0D9
:102BF0000E947F2D40E050E0BA018CE190E00E94FD
:102C0000912D70E060E080E290E00E949D2D40E018
:102C100050E0BA0188E190E00E94912D0E94B61523
:102C200008950E94BE150895682F8EE090E00E94DE
:102C30007F2D0895A5E0B0E0E0E2F6E10C943B2D95
:102C40000E94DB248C018091A7029091A80280173A
:102C50009107A1F08FEF89838A831B820E94DB2476
:102C60008160782F9D838C8349815A816B818D810E
:102C70000E94160C1093A8020093A7022596E4E088
:102C80000C94572D0E94E7246093B9027093BA0206
:102C90008093BB029093BC026093B5027093B6021E
:102CA0008093B7029093B8020895089508950E9402
:102CB0005616089508950E945A16089581E00895C1
:102CC0008FEF96E20E9483220E9455160E945716AB
:102CD00008950E945E1608950E9469160895089549
:102CE00008950E946F160E94701608950E9432196E
:102CF0000E94C80B0E949F1E0E940E1F08950E94F2
:102D0000D2240E949F060E9476160E94851C0E9473
:102D10005B160895A5E0B0E0E0E9F6E10C94322DF1
:102D20000E945E1681110CC00E941A160E949E1EFF
:102D30000E94751B0E94DB0B2596EDE00C944E2D36
:102D40000E940F0729EA822E22E0922E640110E0F1
:102D5000F601E190F1906F01812F0E94AA071F5F99
:102D6000163009F449C0E816F90691F38091BD02C6
:102D700081FD0E94B3070E946C16782E10E0812F0F
:102D80000E94AA077C01F401A190B1904F018A151D
:102D90009B0561F100E0CC24C394D12CAE24BF2468
:102DA000C5018C219D21892BC1F07720B1F00983C9
:102DB0001A8321E0C7018C219D21892B09F420E091
:102DC0002B830E94DB248160782F9D838C83498133
:102DD0005A816B818D810E94160C0F5FCC0CDD1C1B
:102DE0000E30F1F6F4013297F182E0821F5F163067
:102DF00031F60E9442169ACFE816F90609F0B6CFCE
:102E000093CF1F93CF93DF930E943018EC01C1152D
:102E100080E5D807F0F5C11580E4D80708F09CC01C
:102E2000C03ED10520F5CD3CD10508F082C0C83A9E
:102E3000D10578F4C53AD10508F073C0C130D10589
:102E400019F1209709F1C430D105F0F4D0E0C0E0C9
:102E50001BC0C33CD105D0F7C85AD0E0CC0FDD1F52
:102E6000C65BDE4F0990D881C02DD4640DC0C1155A
:102E700080E2D80708F0D1C0C11581E0D80708F07A
:102E80005AC0C83ED10510F7CE01DF91CF911F91F6
:102E90000895C03682E5D80718F5C03482E5D80712
:102EA00008F06BC0C03282E5D80708F05FC0C115DA
:102EB00082E5D80708F497C02C2F2695269580E246
:102EC000289F900111248C2F8370C1E0D0E002C0B4
:102ED000CC0FDD1F8A95E2F7C22BD32BDD68D4CF50
:102EE000C03A82E5D80760F4C03882E5D80708F414
:102EF00059C0CF71D0E0DC2FCC27C46FD06AC4CFCB
:102F0000C03C82E5D80708F462C0C03E82E5D8071D
:102F100008F09CCFDC2FCC27CC27DF71C06FD06AA4
:102F2000B3CFC55AD0E0C058DE4FC881D0E0D064DE
:102F3000ABCFD065A9CF8D2F0E94D218182FCE010C
:102F400099270E943018C12FD0E0DC2FCC27CC2746
:102F5000DF71C82BD92B98CFCE0199270E9430184A
:102F6000CC27DF70C82BD92BD06A8ECFCF71D0E0A1
:102F7000DC2FCC27C16FD06A87CF2C2F26952695C2
:102F8000277080E2289F900111248C2F8370C1E06C
:102F9000D0E002C0CC0FDD1F8A95E2F7C22BD32B05
:102FA000DC6872CF2C2F26952695277080E2289F0B
:102FB000900111248C2F8370C1E0D0E002C0CC0FAF
:102FC000DD1F8A95E2F7C22BD32BDA685DCF8C2FF9
:102FD0008F710E94D218C82FD0E0DC2FCC27CC27CD
:102FE000DF71D06251CF8C2F8F710E94D21855E0C3
:102FF000D695C7955A95E1F7CF70D0E0DC2FCC2756
:10300000282F30E084FF05C044E0220F331F4A958B
:10301000E1F7C22BD32BD06937CF8D2F8F710E9450
:10302000D218182FCE0199270E943018C12FD0E056
:10303000DC2FCC27CC27DF71C82BD92BD2CF462F42
:10304000763030F46E3020F4672F0E94160A08950F
:1030500090E080E008950E941F180E9401170895D3
:1030600082389105B9F1B0F48133910509F47DC03E
:1030700048F48932910509F46DC08A32910509F44A
:103080007BC008958533910509F45FC089339105AC
:1030900009F10895833E9105D9F138F4803E9105F8
:1030A00029F1823E910579F10895863E9105D9F185
:1030B000873E910509F43EC0843E910541F520917B
:1030C000FF0221FF24C08091FE0284FD19C087EE1B
:1030D00090E008952091FE02237009F05AC02091DB
:1030E000FF0223FF14C089E290E008952091FE02C0
:1030F00020FD38C03091FF0230FF09C024FF43C0DB
:1031000090E080E008952091FE0222FDF7CF08951F
:103110002091FE0222FD3AC03091FF0230FD39C0FD
:1031200024FFF5CFEDCF2091FE0223FFF0CF24FD49
:10313000E7CFCDCF2091FE0223FD2EC03091FF02BC
:1031400031FFEECF84EE90E008952091FE0225FF3E
:10315000DECFC9CF2091FE0225FD21C02091FF02C4
:1031600023FFD5CF89E390E0D2CF2091FE0226FF46
:10317000CECF8AE290E008952091FE0226FFC7CFCD
:1031800081E390E0089583EE90E0089582EE90E070
:10319000089580EE90E0089586EE90E0089585E32E
:1031A00090E008959091FE0292FF06C0282F2871AA
:1031B0002830F9F4877F846093FF06C0282F287198
:1031C0002831F1F4877E84612091FF0220FF06C040
:1031D000382F38713830D9F4877F816021FF06C0DD
:1031E000282F28712831D1F4877E816194FD877E54
:1031F0000895282F24712430F9F68B7F8860DCCF66
:10320000282F2471243101F78B7E8861DDCF382F80
:103210003171313019F78E7F8860E0CF282F21710E
:10322000213121F78E7E8861E1CF0E947B150895C0
:103230000E940F072FEF86E791E0215080409040D9
:10324000E1F700C000000E940F0780E00E94AA077B
:1032500080FF04C00E9415190E94262508950E942F
:10326000181908950E948215811102C00E9411163A
:103270000E948D158093BD020E9497159093FF02C6
:103280008093FE020E942F190E94921590E00E94E6
:103290002A1080912702909128020E944B100895D5
:1032A0000E947B270E947F160E94882708950E9413
:1032B0008D270E948A160E94AB2708950E947424CD
:1032C0000E9461270E9460160E9450190E9457199F
:1032D0000E947116FBCF8091C60280FF0DC06091E5
:1032E000060170E0660F771F6038710570F5611593
:1032F000710569F1862F089581FF07C0609106016D
:1033000084E0689FB0011124EFCF6091060182FD37
:103310000AC08091C5028823A9F02091050160911F
:103320000601821710F088E0ECCF869FC0011124BF
:1033300033E0880F991F3A95E1F7622F70E00E9401
:10334000D72CD2CF68E070E0D5CF8FE7089581E029
:1033500008958091C60280FF0CC06091030170E067
:1033600075956795759567956115710549F1862F76
:10337000089581FF06C06091030170E0759567951F
:10338000F3CF6091030182FD0BC09091C402992399
:10339000A1F06091020180910301961738F0682F27
:1033A00070E06038710500F38FE70895899FC001D0
:1033B000112470E00E94D72CF4CF61E070E0D7CFE9
:1033C00081E008958D3C31F40E946B1981958093C2
:1033D000CA0208958E3C19F40E946B19F8CF8F3CF5
:1033E00031F40E946B1981958093C9020895803D44
:1033F00019F40E946B19F8CF893D29F40E94A9198C
:103400008093CB0208958A3D21F40E94A9198195E9
:10341000F7CF8B3D31F40E94A91981958093CC029E
:1034200008958C3D19F40E94A919F8CF9FE2980FD6
:10343000983070F4815D990B21E030E001C0220FDB
:103440008A95EAF78091C802822B8093C80208957A
:103450008D3D31F48091C60281608093C60208954B
:103460008E3D21F48091C6028260F7CF8F3DB9F77F
:103470008091C6028460F1CF4091C9028D3C59F41D
:103480008091CA0287FF0DC01092CA0241110BC081
:103490001092C50208C08E3C81F48091CA021816B1
:1034A0009CF3442381F08091CB029091CC02892B34
:1034B00009F05AC01092C40208958F3C49F447FFA6
:1034C000F0CF1092C9028091CA028111ECCFE0CFF7
:1034D000803D19F41416ACF3E4CF9091CB02893DF2
:1034E00029F41916F4F61092CB02DBCF8A3D19F4B9
:1034F00097FFD7CFF8CF9091CC028B3D29F497FF5F
:10350000D0CF1092CC02CDCF8C3D19F41916CCF34C
:10351000C8CF9FE2980F983090F4815D990B21E01D
:1035200030E0B90102C0660F771F8A95E2F7CB0140
:1035300080959091C80289238093C802B2CF8D3DB7
:1035400031F48091C6028E7F8093C602AACF8E3D51
:1035500021F48091C6028D7FF7CF8F3D09F0A1CF76
:103560008091C6028B7FF0CF08958091BD0283FFCA
:103570007EC08AE597E00E94DE058091C8021F9216
:103580008F9385E597E09F938F930E94770683E55D
:1035900097E00E94DE058091C902282F082E000CBA
:1035A000330B3F938F9380E597E09F938F930E9417
:1035B00077068EE497E00E94DE058091CA02282FEC
:1035C000082E000C330B3F938F938BE497E09F936F
:1035D0008F930E94770689E497E00E94DE05809130
:1035E000CB02282F082E000C330B3F938F9386E4D9
:1035F00097E09F938F930E94770684E497E00E9460
:10360000DE058091CC02282F082E000C330B3F934F
:103610008F9381E497E09F938F930E9477068EE3C8
:1036200097E00E94DE058091C5021F928F938BE385
:1036300097E09F938F930E94770689E397E00E941B
:10364000DE058091C6021F928F9386E397E09F93D9
:103650008F930E94770683E397E00E94DE058DB783
:103660009EB74C960FB6F8949EBF0FBE8DBF0E94BA
:10367000DB249C019091C9028091CA02982B21F011
:103680003093C3022093C2029091CB028091CC026E
:10369000982B21F03093C1022093C00287EC92E076
:1036A0000E94F022089586E0E7ECF2E0DF011D922F
:1036B0008A95E9F71092C5021092C4021092C602D0
:1036C0000895FC01828181110EC0838181110BC09C
:1036D0008481811108C091E08581811101C090E051
:1036E000892F8170089581E0FCCFA6E0B0E0EBE780
:1036F000FBE10C943C2D86E0E7ECF2E0DE01119654
:1037000001900D928A95E1F71092C9021092CA02B7
:103710001092CB021092CC028B819C81892B89F074
:103720008091C2029091C3020E94F324AC01909157
:10373000C5029923C9F1809107018417150608F481
:1037400040C08D819E81892B91F08091C002909123
:10375000C1020E94F324AC019091C402992309F4A0
:1037600071C0809104018417150608F479C0BE0168
:103770006F5F7F4F87EC92E00E942C24811105C07F
:1037800087EC92E00E94611B81110E94B51A86E0CD
:10379000FE013196A7ECB2E001900D928A95E1F717
:1037A0002696E3E00C94582D2091BF028AE0289FD2
:1037B000900111242417350720F69F5F9093C502CE
:1037C00002C09F3FD1F71B81112359F00E946B1952
:1037D0009FEF11160CF491E0899F802D11248093A6
:1037E000C9021C81112359F00E946B199FEF111619
:1037F0000CF491E0899F802D11248093CA023091AE
:10380000C902332309F49DCF2091CA02222309F46F
:1038100098CF45EB3403C0011124992359F09093BC
:10382000C90245EB240390011124332339F030936E
:10383000CA0287CF81E08093C902F3CF81E08093F1
:10384000CA027FCF2091BE028AE0289F90011124F6
:103850002417350708F08BCF9F5F9093C40202C0F6
:103860009F3FD1F71D81112359F00E94A9199FEFA5
:1038700011160CF491E0899F802D11248093CB02C6
:103880001E81112359F00E94A9199FEF11160CF403
:1038900091E0899F802D11248093CC023091CB023E
:1038A000332309F464CF2091CC02222309F45FCFA3
:1038B00045EB3403C0011124992359F09093CB02B6
:1038C00045EB240390011124332339F03093CC02CB
:1038D0004ECF81E08093CB02F3CF81E08093CC0286
:1038E00046CF86E090E00E94712D0895682F86E013
:1038F00090E00E947F2D0895E0E0F3E080818470E5
:10390000896180830E94761C08950E94821581112E
:1039100004C00E9411160E947C1C0E94711C80939E
:103920000003803220F087708861809300039091BB
:103930000003892F817090FF04C0892F869586959A
:1039400086950E94F81D089580910003982F969502
:1039500096959695933040F49F5F990F990F990F24
:103960008770892B8093000380910003816080938E
:1039700000030E94761C8091BD0280FF11C08091DF
:1039800000038695869586951F928F9384EE97E027
:103990009F938F930E9477060F900F900F900F9038
:1039A000809100038695869586950E94F81D08955E
:1039B00080910003982F987F79F0885080930003BE
:1039C000887F91E009F490E08091000390FB80F9FA
:1039D000809300030E94761C8091BD0280FF11C07D
:1039E000809100038695869586951F928F938CEC27
:1039F00097E09F938F930E9477060F900F900F9000
:103A00000F90809100038695869586950E94F81DFB
:103A100008958091000380FD1FC0816080930003A2
:103A2000813019F489E080930003809100030E94A3
:103A3000761C8091BD0280FF08C084EA97E09F93C6
:103A40008F930E9477060F900F90809100038695C8
:103A5000869586950E94F81D08958091000380FF49
:103A600014C08E7F809300030E94761C8091BD025B
:103A700080FF08C081E997E09F938F930E947706AB
:103A80000F900F9080E00E94F81D0895CF93C09191
:103A90000003C1708091BD0280FF0CC01F92CF93C4
:103AA00086EB97E09F938F930E9477060F900F907D
:103AB0000F900F90CC2321F00E942D1DCF910895DF
:103AC0000E94091DFBCF90910003892F8695869552
:103AD00086958F5F8F719770843088F5880F880F77
:103AE000880F892B8093000380910003887F91E0E9
:103AF00009F490E08091000390FB80F9809300032B
:103B00000E94761C8091BD0280FF11C0809100034D
:103B10008695869586951F928F938DE797E09F9364
:103B20008F930E9477060F900F900F900F908091C7
:103B300000038695869586950E94F81D08959093BA
:103B40000003D2CF843008F083E090910003977097
:103B5000282F220F220F220F922B90930003987F81
:103B600021E009F420E09091000320FB90F990936C
:103B700000030E94F81D08950E94A21D8091000379
:103B80000E94761C08959C01FB018281882349F1E3
:103B90002230F8E73F07F9F040F42115E8E73E0747
:103BA00069F02130384779F00895243098E73907D3
:103BB00079F058F02530384789F0089583E00E9465
:103BC000BC1D80E0089580E0FACF0E94D81CF9CF98
:103BD0000E94A41CF6CF0E94461DF3CF0E94631DD5
:103BE000F0CF81E00895279A2F9808952F9808958F
:103BF0008F929F92AF92BF92EF92FF920F931F937B
:103C0000CF93DF93C82F8430C0F5811137C08091E6
:103C10008000877F809380000E94F61DA09186001F
:103C2000B09187002C2F30E00E94132D23E030E06C
:103C300040E050E00E94EB2C89019A0180918600BF
:103C4000909187006CE070E00E94C32C60177107B0
:103C5000D8F0C80169E070E00E94C32C70938D0019
:103C600060938C00DF91CF911F910F91FF90EF90A7
:103C7000BF90AF909F908F900895C3E08091800097
:103C8000886080938000CACF8091860090918700E1
:103C9000E0908600F0908700E0918600F091870028
:103CA000C6E0D0E0BE010E94C32C060F171F211DE5
:103CB000311D4801590185E0880C991CAA1CBB1CC8
:103CC0008A95D1F7C701BE010E94C32C9F0150E025
:103CD00040E0260F371F411D511DC501B4010E9450
:103CE000EB2C49015A01E0918600F0918700CA014E
:103CF000B9010E94A72C9B01AC01DF010E94222D7B
:103D00009B01AC01C501B4010E94A72C2FE0969540
:103D10008795779567952A95D1F700918600109140
:103D2000870030E020E0061717072807390708F05A
:103D300095CF609186007091870090CF08950E9482
:103D4000F31D8AE08093800089E1809381008FEFEA
:103D50009FEF90938700809386000E94851C0895B2
:103D6000FB012281222341F097FF06C09F77BC010F
:103D700090E080E00E94252081E008950F931F933A
:103D8000CF93DF93EC018B01FB0182818823B1F09B
:103D90000E947E148272FE01E053FC47E830F10578
:103DA00068F4EF53F24D0C940D2D811104C081E0A5
:103DB00003C08111FCCF8FEF0E94331FB801CE01E9
:103DC0000E94B01EDF91CF911F910F91089580E066
:103DD0000E943B1FF3CF81E0FBCF82E0F9CF83E06D
:103DE000F7CF84E0F5CF85E0F3CF909102039230D6
:103DF00071F48A3050F490E009966AE070E00E9415
:103E0000D72C875A0E945F0D08958650FBCF0E94E1
:103E1000A621089508950E940A1F08958CE090E05D
:103E20000E94712D482F50E070E060E04093020343
:103E30005093030360930403709305030E940B1FC8
:103E40008091BD0280FF0EC0809102031F928F936C
:103E50008BE198E09F938F930E9477060F900F90CD
:103E60000F900F9008950895609102038CE090E008
:103E70000E947F2D0895CF93C82F809302030E9444
:103E8000341F8C2F0E940B1F8091BD0280FF0EC03B
:103E9000809102031F928F938CEF97E09F938F93F3
:103EA0000E9477060F900F900F900F90CF9108957A
:103EB0000E949A228093010390910203913029F489
:103EC00081FF03C089E30E945F0D0E947E148093EE
:103ED00006030E9491140E94A11480910203823073
:103EE00021F158F48823C1F08130D1F08FE39CE9AF
:103EF0000197F1F700C000000895843051F185303A
:103F0000A9F78BE191E00E949A0A85E290E00E9475
:103F10009A0A88E290E006C082EE0E945B0CE6CF2F
:103F200088E193E00E949A0AE1CF8091010380FD2D
:103F300003C083E50E945F0D82EE0E945B0C8FE35D
:103F40009CE90197F1F700C0000087E50E945F0D32
:103F5000CDCF86EE0E945F0D88E1F8CF80910203FD
:103F6000823011F148F4882381F0813091F0809102
:103F700006030E948E1408958430F9F08530B9F755
:103F800088E290E00E949A0AF2CF82EE0E94ED0C45
:103F9000EECF8CE20E945F0D8091010381FFE7CF9D
:103FA00089E30E945F0DE3CF82EE0E94ED0C8091C9
:103FB000010380FDDCCF83E5F4CF88E2F2CF8F925E
:103FC0009F92AF92BF92EF92FF920F931F93CF9366
:103FD000DF934B015C01D09102038CE1E82EF12CC0
:103FE00007E010E021E0D501C4010E2C04C0B69515
:103FF000A795979587950A94D2F7C82FCF7022235B
:1040000039F0D43051F4CA3040F080E00E94F51EFF
:104010008C2F0E94F51E20E005C0C111F9CF04309D
:104020001105B4F30150110984E0E81AF1080F3FBB
:104030001007C9F6DF91CF911F910F91FF90EF907C
:10404000BF90AF909F908F900895CF92DF92EF92A4
:10405000FF926B017C01C114D10481E1E806F104F7
:10406000A0F5C114D10481E0E806F10420F08091AC
:104070000203823051F10E94581FC114D10481E023
:10408000E806F10438F180910203811123C081E038
:10409000E81AF108C701B6012AE096958795779549
:1040A00067952A95D1F778528F4F9F4F0E94DF1F57
:1040B00083E0D822EE24FF24C701B60174528F4F4B
:1040C0009F4F0E94DF1F0E94AE1FFF90EF90DF9076
:1040D000CF900895C701B601F4CFCF93DF93EC01E1
:1040E000FB018281882309F4D2C09E01305723321C
:1040F000310508F0B2C00E9497159093FF0280939B
:10410000FE02FE01E150F047E232F10520F4E753F0
:10411000F24D0C940D2D8091FE0281608093FE0281
:1041200093C08091FF0288608093FF028DC08091D0
:10413000FE028260F3CF8091FE028460EFCF809117
:10414000FE028860EBCF8091FF028160EDCF80910D
:10415000FF028260E9CF8091FE028061DFCF809113
:10416000FE028062DBCF8091FE028064D7CF0E9486
:10417000D70F8091FE028068D1CF8091FE028C60C3
:10418000CDCF8091FF028360CFCF8091FE028E7FE2
:10419000C5CF8091FF02877FC7CF8091FE028D7FC0
:1041A000BDCF8091FE028B7FB9CF8091FE02877FC9
:1041B000B5CF8091FF028E7FB7CF8091FF028D7FB8
:1041C000B3CF8091FE028F7EA9CF8091FE028F7DBA
:1041D000A5CF8091FE028F7BA1CF0E94D70F809147
:1041E000FE028F779BCF8091FE02837F97CF8091D5
:1041F000FF028C7F99CF8091FE0282FB992790F974
:1042000021E0922790FB82F990FB83F987CF809180
:10421000FF02982F909591708E7F892B90FB81F9EA
:1042200083CF9091FE02892F8F7B96FF806476CF9B
:104230000E94D70F9091FE02892F97FB87F9805833
:104240006DCF81E00E9414168091FE029091FF02D2
:104250000E949C150E94D70F80E0DF91CF910895B6
:1042600080E0F0CF9091FE02892F8F7E94FF8061D5
:1042700055CF9091FE02892F8E7F90FF81604ECFA7
:104280009091FF02892F877F93FF88604DCF81E057
:10429000E4CFB0E0A0E0EFE4F1E20C94382DE82F99
:1042A000F0E0E55CF74FD490282F269526952695CB
:1042B00030E0F901E552F74F0491877010E0082EC5
:1042C00002C0159507950A94E2F701701127F901CC
:1042D000E553F74FE490F12C082E02C0F594E794D3
:1042E0000A94E2F791E0E922FF24F901E554F74F3F
:1042F000C491D0E002C0D595C7958A95E2F7C17008
:10430000DD270115110519F081EE0E945B0CE11407
:10431000F10419F086EE0E945B0C8D2D0E945F0D5A
:10432000E114F10419F086EE0E94ED0C011511055F
:1043300019F081EE0E94ED0CCD2B19F08CE20E9459
:104340005F0DCDB7DEB7E7E00C94542D982F9F702A
:104350009A50963020F0805D0E9449210895895A34
:10436000FBCFCF93DF93EB0186319C4711F50E9481
:104370007E149A81992399F08A7A91E009F490E069
:104380009093CD02811109C089E20E9456140E94C7
:10439000C21480E0DF91CF91089585E3F6CF80913C
:1043A000CD02811104C089E20E945E14F0CF85E342
:1043B000FBCF81E0EFCF0F931F93CF93DF93C42FF9
:1043C000D22FFC0182818823C9F04093D0020E9441
:1043D000DB249093CF028093CE0280E28C0F883052
:1043E00040F4C77081E001C0880FCA95EAF70E94C7
:1043F000680DDF91CF911F910F9108951091D00218
:10440000141332C08091CE029091CF020E94F32407
:10441000883C910548F5C0E2CD0F1D17B9F080E248
:10442000810F883040F4177081E001C0880F1A9521
:10443000EAF70E946F0DC83048F481E09D2F977015
:1044400001C0880F9A95EAF70E94680D802F0E949C
:104450005F0DC83070F6D77081E001C0880FDA9523
:10446000EAF70E946F0DC5CF80E28C0F883008F606
:10447000C77081E001C0880FCA95EAF7F2CF0F93A9
:10448000DB0188519C4787309105A0F5FC01E5517F
:10449000F24D0C940D2D06E221EE41EE6AE17CE72F
:1044A000CD010E94DB2180E00F91089507E225EE07
:1044B00045EE6BE17CE7F4CF06E221EE40EE68E1E9
:1044C0007CE7EECF07E225EE44EE69E17CE7E8CF3A
:1044D00006E221EE42EE6CE17CE7E2CF07E225EE58
:1044E00046EE6DE17CE7DCCF08E221E045EE6EE1CF
:1044F0007CE7D6CF12968C91882319F01092D002C7
:10450000D3CF81E0D1CF909393018093920108950E
:104510009093D6028093D5020895E091D502F09150
:10452000D602309729F00190F081E02D0995089589
:1045300080E008950E948D220895EF92FF920F93DC
:104540001F93CF93DF93EC01E091D502F091D60257
:10455000309709F440C080911001882341F0809188
:10456000FE0287FF04C08881898386E088830280F9
:10457000F381E02DCE0109958091BD0282FF2BC011
:1045800080FF04C083EF98E00E94DE0510E000E0A9
:104590008DEEE82E88E0F82E8091BD0280FF0EC0DF
:1045A000FE01E00FF11F80811F928F93FF92EF9227
:1045B0000E9477060F900F900F900F900F5F1F4F84
:1045C0000830110549F78091BD0280FF04C08BEED1
:1045D00098E00E94DE05CDB7DEB7E6E00C94552DDD
:1045E000E091D502F091D602309739F022E0DC015B
:1045F0002C930480F581E02D09950895A3E0B0E0A7
:10460000E4E0F3E20C943D2D2091D3023091D402EA
:1046100028173907A1F09093D4028093D302E09138
:10462000D502F091D602309751F023E029839B8385
:104630008A830680F781E02DCE01019609952396A5
:10464000E2E00C94592DA3E0B0E0E9E2F3E20C942F
:104650003D2D2091D1023091D20228173907A1F0C7
:104660009093D2028093D102E091D502F091D602CC
:10467000309751F024E029839B838A830680F78159
:10468000E02DCE01019609952396E2E00C94592D78
:10469000FC01329680911001882321F08091FE0266
:1046A0009EE187FF96E080E0915008F40895219103
:1046B0002223D1F38F5FF8CF662301F120911001FF
:1046C0002223F1F02091FE0227FF1AC0462F4695C3
:1046D000469546954E3190F4677021E030E002C077
:1046E000220F331F6A95E2F7840F911DFC0182812E
:1046F00090E02823392381E0232B69F480E008959A
:10470000FC01329608962191261721F0E817F90747
:10471000D1F7F4CF81E008959C01FC0132969FEF20
:1047200080E04191461751F09F3F19F4411101C0BB
:10473000982F8F5F8630A9F79F3F09F40895290FBE
:10474000311D97FD3A95F90162830895FC01329677
:1047500008962191261303C0DF0111971C92E817D8
:10476000F907B9F70895E62FE695E695E695EE3157
:1047700070F4E80FF92FF11D677021E030E001C0FF
:10478000220F6A95EAF78281822B828308958091B5
:10479000BD0280FF0CC01F926F9383E299E09F934C
:1047A0008F930E9477060F900F900F900F900895AF
:1047B000E62FE695E695E695EE3178F4E80FF92FC9
:1047C000F11D677021E030E001C0220F6A95EAF721
:1047D000209582812823228308958091BD0280FF45
:1047E0000CC01F926F9385E099E09F938F930E9476
:1047F00077060F900F900F900F9008952091100161
:10480000222339F02091FE0227FF03C00E94B32328
:1048100008950E948C23089520911001222339F0DD
:104820002091FE0227FF03C00E94D82308950E9412
:10483000A6230895FC01329680911001882351F03F
:104840008091FE0287FF06C08EE1DF011D928A95EE
:10485000E9F7089586E0F9CF46E050E00E94642D24
:1048600021E0892B09F420E0822F089508950E9409
:1048700036240895811106C081E08093D7020E94FA
:104880003724089582E0F9CF83E08093D7020E9415
:10489000372408950E943A24089581E08093D70236
:1048A0000E94372408950E944D2408950895089584
:1048B0000E945724089508950E9456240895CF9386
:1048C0000E94B6060E940F070E945B24C0E08C2F56
:1048D0000E94AA07892B31F4CF5FC630C1F780E070
:1048E000CF91089581E0FCCF85B7806885BF85B7FB
:1048F000806885BF08951F921FB61F9211248F9361
:104900009F93AF93BF938091D802811113C0809180
:10491000070390910803A0910903B0910A034196FF
:10492000A11DB11D8093070390930803A093090371
:10493000B0930A03BF91AF919F918F911F901FBEBB
:104940001F90189580910F03843031F10E94810BE4
:104950001092D80288E190E020E40FB6F894A89570
:10496000809360000FBE2093600083B7817F8460D6
:1049700083BF83B7816083BF7894889583B78E7F28
:1049800083BF0FB6F894A8958091600088618093EA
:104990006000109260000FBE08950E94D70F0E9421
:1049A000890B089582E084BD93E095BD9AEF97BD91
:1049B00080936E0008952FB7F8948091070390912B
:1049C0000803A0910903B0910A032FBF08952FB7E0
:1049D000F894609107037091080380910903909106
:1049E0000A032FBF08959C014FB7F89480910703E5
:1049F00090910803A0910903B0910A034FBF821B55
:104A0000930B089578941F921FB61F9211248F93D1
:104A10009F93AF93BF938091070390910803A09158
:104A20000903B0910A030196A11DB11D80930703EC
:104A300090930803A0930903B0930A03BF91AF9129
:104A40009F918F911F901FBE1F90189581E08093BA
:104A5000E00080E28093D8001092C9008FE19EE4CC
:104A60000197F1F700C0000087E090EBDC01809334
:104A7000180390931903A0931A03B0931B0388E1C2
:104A80009CE00FB6F894A895809360000FBE9093B9
:104A90006000FFCF88E19CE00FB6F894A895809362
:104AA00060000FBE90936000FFCF8091FC020895DC
:104AB0009B01BA0190910F039430E9F48F708093B9
:104AC000E9009FEF8091E800915085FD06C085EDDB
:104AD0008A95F1F700009111F5CF8091E80085FFEC
:104AE0000AC050E040E0C9010E9421288091E800FE
:104AF0008E778093E800089543E050E0BC0182E0A7
:104B00000E945825089546E050E0BC0182E00E94D2
:104B100058250895CF93DF93EC0180911001811106
:104B200011C048E050E0BE0181E00E94582580E2BB
:104B3000FE01ACEDB2E001900D928A95E1F7DF91B4
:104B4000CF9108958091FE0287FF05C040E282E088
:104B500050E0BE01EACF48E081E0FACF85E599E078
:104B60000E94DE0580910E03811109C00E94B129C7
:104B70000E940E2A8091E20084608093E2000895F2
:104B800081E599E00E94DE0510920E0308958DE400
:104B900099E00E94DE050E944D24089589E499E081
:104BA0000E94DE0560910B0381E0611101C080E08D
:104BB0000E944424089585E499E00E94DE059091C6
:104BC0000F0381E0943009F080E060910B030E94B4
:104BD0004A2408952091DA022F5F822F62E30E9417
:104BE000B72C992319F02093DA0208951092DA0273
:104BF0008091DB028823F1F080910F038430C1F4AF
:104C00009091E9009F702091EC00822F817020FD2F
:104C100080E8892B93E09093E9009091EB0090FF5E
:104C200004C09091EE0097FD08C08F708093E9005A
:104C30001092DB0208951092F1009091E80095FD2A
:104C4000FACF9091E80090FFF0CF9091E8009E7726
:104C50009093E800EACF42E061EC81E00E942D29C8
:104C600042E261EC82E00E942D2942E261EC83E0A5
:104C70000E942D2990910F0381E0943009F080E08B
:104C800060910B030E943A240895809111038330B0
:104C900009F461C030F48130D1F1823009F49EC052
:104CA00008958A3009F48AC08B3009F46FC08930C6
:104CB00009F050C080911003813209F04BC08091FF
:104CC000140390911503029708F044C08091E80006
:104CD000877F8093E8008091E80082FF37C0909141
:104CE000F3008091F200029731F48091F10081305D
:104CF00011F0863021F48091F1008093FC028091C4
:104D0000E8008B778093E8000E94612923C080919E
:104D10001003813AF9F48091E800877F8093E800DE
:104D20008091140390911503892B61F460E28CED5E
:104D300092E070E00E9470288091E8008B77809369
:104D4000E800089560E090E080E0F3CF80910F03E9
:104D50008111C1CF089580911003813AD9F78091D4
:104D6000140390911503892BA9F78091E800877FA0
:104D70008093E8008091E80080FFFCCF80911001D3
:104D80008093F1008091E8008E77BCCF8091100372
:104D9000813201F78091140390911503892BD1F68C
:104DA0008091E800877F8093E8000E9461298091CC
:104DB0001203809310010E94D70F08958091100371
:104DC000813241F68091E800877F8093E8000E945D
:104DD0006129809113038093FD020895809110034F
:104DE000813A09F0B7CF8091E800877F8093E8008F
:104DF0008091E80080FFFCCF8091FD02C1CF9FB77A
:104E0000F8941092DB029FBF90910F03943009F049
:104E100048C02091E9002F703091EC00932F9170E1
:104E200030FD90E8922B23E02093E9002091EB00E5
:104E300020FF34C02091EE0027FF30C02091D9021E
:104E4000222321F02091E80025FF28C01092D902EA
:104E500026E03091E80035FF14C08093F100809186
:104E6000E80085FD27C08091E80080FFFCCF80919D
:104E7000E8008E778093E8009F709093E90080E0CF
:104E8000089530910F03343049F43091EB0035FD33
:104E900005C0215041F481E08093D9029F70909326
:104EA000E9008FEF0895EFE9FFE03197F1F700C0D7
:104EB0000000CFCF8FB7F89421E02093DB028FBFA3
:104EC000DBCF84B7877F84BF0FB6F894A895809115
:104ED0006000886180936000109260000FBE80E8DF
:104EE00090E00FB6F89480936100909361000FBE3C
:104EF0000E94532408950E94B1290E940E2AE2EED6
:104F0000F0E080818460808378940E948C2C0895E6
:104F100088E091E00E948822089580910F038530F7
:104F200051F481E499E00E94DE0580910F03853001
:104F300019F00E94CD2408950E94A22480910D03AF
:104F4000882399F30E945F24882379F30E940B2819
:104F50000E94D70FEACF08959A014091160350910D
:104F600017030E94B4270895492F55274330510550
:104F700021F168F44130510509F443C04230510534
:104F800009F444C090E080E050E040E026C04132A7
:104F9000510551F142325105A9F76330710590F77F
:104FA000FB01EE0FFF1FEA57FE4F408151816D5705
:104FB0007E4FFB01808190E010C0992781309105E0
:104FC00081F0009729F00297E9F6E9E5F9E002C0DF
:104FD000E7EAF9E0849190E0AF01F9015183408361
:104FE0000895E3E8F9E0F6CF6330710558F6660FEF
:104FF000771FFB01E457FE4F4081518189E090E02B
:10500000ECCF82E190E046E05AE0E7CF8BE590E01C
:105010004BEA59E0E2CF80E189BD82E189BD09B464
:1050200000FEFDCF8091D8008F7D8093D8008091C5
:10503000E00082608093E0008091E00081FDFCCF81
:105040000895AF92BF92CF92DF92FF920F931F937A
:10505000CF93DF936C01EB018A010E948029F82E27
:10506000811123C00115110539F0F801808191816A
:10507000C81BD90BC80ED91EB12CA12C2097A9F0A2
:105080008091E80085FD22C08091E8008E778093B2
:10509000E80001151105A1F0F80180819181A80EA9
:1050A000B91EB182A08285E0F82E8F2DDF91CF91BD
:1050B0001F910F91FF90DF90CF90BF90AF90089518
:1050C0000E9480298823D1F2F82EEFCFF60181913A
:1050D0006F018093F1002197FFEFAF1ABF0ACECF87
:1050E000FC01809116039091170386179707A0F093
:1050F0006115710529F49091E8009E779093E8007E
:1051000090E06115710551F4911108C08091E8009B
:1051100082FF34C080E00895BC01F2CF80910F037C
:105120008823C1F18530C1F18091E80083FD30C052
:105130008091E80082FDEACF8091E80080FFE1CF16
:105140008091F3002091F200382F6115710519F05C
:105150002830310558F091E02830310509F090E011
:105160002091E8002E772093E800CBCF81918093A7
:10517000F100615071092F5F3F4FE7CF80910F031E
:10518000882341F0853041F08091E80083FFBECF55
:1051900081E0089582E0089583E00895FC01809104
:1051A00016039091170386179707A0F061157105F4
:1051B00029F48091E8008E778093E80090E06115F3
:1051C000710551F4911108C08091E80082FF35C04B
:1051D00080E00895BC01F2CF80910F038823C9F1CC
:1051E0008530C9F18091E80083FD31C08091E800ED
:1051F00082FDEACF8091E80080FFE1CF8091F3004B
:105200002091F200382F6115710519F02830310511
:1052100058F091E02830310509F090E08091E800E5
:105220008E778093E800CBCF84918093F100319604
:10523000615071092F5F3F4FE6CF80910F038823A4
:1052400041F0853041F08091E80083FFBDCF81E0DF
:10525000089582E0089583E00895982F973028F00C
:105260008F708093E90081E008959093E900242FE6
:10527000762F50E0981731F07091EC002091ED00FE
:105280005091F00021FD02C09F5FE8CF3091EB000C
:105290003E7F3093EB003091ED003D7F3093ED0089
:1052A0003091EB0031603093EB007093EC00209371
:1052B000ED005093F0002091EE0027FDE5CF80E057
:1052C00008958091100387FF13C08091E80082FF4A
:1052D00006C08091E8008B778093E80004C080913D
:1052E0000F038111F2CF089580910F038823D9F322
:1052F0008091E80080FFF8CF8091E8008E77ECCFB6
:105300002091E4003091E50095E6A9012091EC00A0
:10531000822F817020FF06C08091E80080FF06C0C8
:1053200080E008952091E80022FD1AC080910F03CB
:10533000882389F0853089F08091EB0085FD0FC0CE
:105340002091E4003091E50042175307F9F29150A3
:10535000E1F684E0089582E0089583E0089581E015
:1053600008950E94202A0E94282AE0EEF0E0808121
:1053700081608083E8EDF0E080818F77808319BCC5
:10538000A7EDB0E08C918E7F8C9380818F7E80839F
:1053900010920E0308950F931F93CF93DF930E94F3
:1053A000202A0E94282AC8EDD0E088818F77888340
:1053B00088818068888388818F7D888319BC10925A
:1053C0000F0310920B0310920D0310920C0300EECA
:1053D00010E0F80180818B7F8083888181608883E1
:1053E00042E060E080E00E942D29E1EEF0E0808163
:1053F0008E7F8083E2EEF0E0808181608083808117
:1054000088608083F80180818E7F808388818061BD
:105410008883DF91CF911F910F910895E8EDF0E01F
:1054200080818F7E8083E7EDF0E0808181608083E2
:1054300084E082BF81E080930E030E94CB2908950F
:10544000E8EDF0E080818E7F80831092E200089585
:105450001092DA001092E10008951F920F920FB699
:105460000F9211242F933F934F935F936F937F93EA
:105470008F939F93AF93BF93EF93FF938091E1003E
:1054800082FF0BC08091E20082FF07C08091E100A3
:105490008B7F8093E1000E94EA258091DA0080FFF3
:1054A00019C08091D80080FF15C08091DA008E7FEE
:1054B0008093DA008091D90080FF96C080E189BD99
:1054C00082E189BD09B400FEFDCF81E080930F0326
:1054D0000E94AE258091E10080FF19C08091E2001A
:1054E00080FF15C08091E2008E7F8093E200809162
:1054F000E20080618093E2008091D8008062809316
:10550000D80019BC85E080930F030E94CE258091BE
:10551000E10084FF2BC08091E20084FF27C080E17E
:1055200089BD82E189BD89B5982F917080FFFBCF3D
:105530008091D8008F7D8093D8008091E1008F7E8C
:105540008093E1008091E2008F7E8093E200809161
:10555000E20081608093E20080910B03882309F4CC
:1055600049C084E080930F030E94DB258091E10015
:1055700083FF29C08091E20083FF25C08091E10074
:10558000877F8093E10082E080930F0310920B03EA
:105590008091E1008E7F8093E1008091E2008E7F18
:1055A0008093E2008091E20080618093E20042E01B
:1055B00060E080E00E942D298091F0008860809357
:1055C000F0000E94C725FF91EF91BF91AF919F918D
:1055D0008F917F916F915F914F913F912F910F909C
:1055E0000FBE0F901F90189519BC10920F030E94C8
:1055F000C02570CF8091E30087FD93E090930F0367
:10560000B3CF1F920F920FB60F9211242F933F9397
:105610004F935F936F937F938F939F93AF93BF93BA
:10562000CF93DF93EF93FF93D091E900DF708091E8
:10563000EC00C82FC17080FDC0E81092E900809195
:10564000F000877F8093F00078940E94452B1092A1
:10565000E9008091F00088608093F000CD2BCF703E
:10566000C093E900FF91EF91DF91CF91BF91AF918E
:105670009F918F917F916F915F914F913F912F916A
:105680000F900FBE0F901F901895AAE2B0E0EBE4C8
:10569000FBE20C943C2D80E193E02091F100FC01B1
:1056A0002193CF01F3E088319F07B9F70E94452687
:1056B0008091E80083FF1EC1809110039091110337
:1056C0009A3008F017C1E92FF0E0EE50F24D0C943B
:1056D0000D2D803899F0823809F00CC180911403A7
:1056E0008F70873008F006C18093E9008091EB004D
:1056F00085FB882780F91092E90006C080910C0391
:1057000090910D03911182609091E800977F9093A2
:10571000E8008093F1001092F1008091E8008E770C
:10572000E5C0882309F4D3C0823009F0E3C080913A
:1057300012038111D6C0809114038F702FEF280FB0
:10574000263008F0D7C08093E9002091EB0020FFBD
:10575000C8C0933031F48091EB0080628093EB00FD
:10576000C0C09091EB0090619093EB0021E030E09D
:1057700001C0220F8A95EAF72093EA001092EA000E
:105780008091EB008860EACF8111B4C010911203C0
:105790001F778091E3008078812B8093E3008091D4
:1057A000E800877F8093E8000E9461298091E800EB
:1057B00080FFFCCF8091E30080688093E30082E06B
:1057C000111183E080930F0395C08058823008F058
:1057D00091C080911203909113038C3D23E09207B6
:1057E000A1F583E08A838AE289834FB7F894DE01CA
:1057F000139620E03EE051E2E32FF0E05093570093
:10580000E49120FF03C0E295EF703F5FEF708E2FB1
:1058100090E0EA30C0F0C7968D939D932F5F2431BE
:1058200059F74FBF8091E800877F8093E8006AE2D4
:1058300070E0CE0101960E9470288091E8008B777D
:105840008093E80057C0C096E7CF60911403709131
:105850001503AE014F5F5F4F0E94AC27BC01892B3F
:1058600009F448C09091E800977F9093E8008981FF
:105870009A810E94CE28E1CF8038E1F58091E8003E
:10588000877F8093E80080910B038093F10045CFE0
:10589000811130C090911203923060F58091E80040
:1058A000877F8093E80090930B030E946129809189
:1058B0000B03882311F084E005C08091E30087FD8D
:1058C000FACF81E080930F030E942B2613C08091B2
:1058D0001203813079F481E0933009F080E0809305
:1058E0000D031092E9008091E800877F8093E80023
:1058F0000E9461298091E80083FF0AC08091E8003E
:10590000877F8093E8008091EB0080628093EB00BA
:10591000AA96E3E00C94582DCF9380910F0388232F
:10592000A1F0C091E900CF709091EC00892F8170B7
:1059300090FD80E8C82B1092E9008091E80083FD7B
:105940000E94452BCF70C093E900CF910895DB01F1
:105950008F939F930E94222DBF91AF91A29F800DA4
:10596000911DA39F900DB29F900D11240895991B36
:1059700079E004C0991F961708F0961B881F7A9546
:10598000C9F780950895AA1BBB1B51E107C0AA1F48
:10599000BB1FA617B70710F0A61BB70B881F991FD0
:1059A0005A95A9F780959095BC01CD01089597FB74
:1059B000072E16F4009407D077FD09D00E94C32C5F
:1059C00007FC05D03EF4909581959F4F0895709502
:1059D00061957F4F0895A1E21A2EAA1BBB1BFD0102
:1059E0000DC0AA1FBB1FEE1FFF1FA217B307E407BE
:1059F000F50720F0A21BB30BE40BF50B661F771F16
:105A0000881F991F1A9469F76095709580959095F5
:105A10009B01AC01BD01CF010895EE0FFF1F059062
:105A2000F491E02D0994A29FB001B39FC001A39F00
:105A3000700D811D1124911DB29F700D811D1124C7
:105A4000911D08950E94132DA59F900DB49F900D58
:105A5000A49F800D911D112408952F923F924F9283
:105A60005F926F927F928F929F92AF92BF92CF92EE
:105A7000DF92EF92FF920F931F93CF93DF93CDB7F7
:105A8000DEB7CA1BDB0B0FB6F894DEBF0FBECDBF6F
:105A900009942A88398848885F846E847D848C8440
:105AA0009B84AA84B984C884DF80EE80FD800C8149
:105AB0001B81AA81B981CE0FD11D0FB6F894DEBF2C
:105AC0000FBECDBFED010895FB01DC0104C08D9137
:105AD0000190801921F441505040C8F7881B990B60
